:100000000C9403010C9430010C9430010C943001D9
:100010000C9430010C9430010C9430010C9430019C
:100020000C9430010C9430010C9430010C9430018C
:100030000C9430010C9430010C9430010C9430017C
:100040000C9430010C9430010C9430010C9430016C
:100050000C9430010C9430010C9430010C94330159
:100060000C9430010C94A50D0C9430010C943001CB
:100070000C9430010C9430010C9430010C9430013C
:100080000C9430010C9430010C9430010C9430012C
:100090000C94DA0D0C9430010C9430010C94300166
:1000A0000C9430010C9430010C9430010C9430010C
:1000B0000C9430010C9430010C9430010C943001FC
:1000C0000C9430010C9430010C9430010C940F0E00
:1000D0000C9430010C9430010C94440E0C943001BB
:1000E0000C94300100002100240027002A002D007C
:1000F0003000330001010000040107010A01000083
:100100002200250028002B002E00310034000201BF
:100110000000050108010B0100002000230026005B
:1001200029002C002F00320000010000030106010D
:10013000090105050505070508080808020202026D
:100140000A0A080804040404010101010101010173
:100150000303030303030303040707070C0C0C0C3E
:100160000C0C0C0C02020202060606060606060627
:100170000B0B0B0B0B0B0B0B0102102020080810B4
:100180002040102040800201020108040201010207
:1001900004081020408080402010080402018004E0
:1001A000020180402010080402010804020101023B
:1001B0000408102040800102040810204080000044
:1001C000090A02080B0C0D070603040100000000D9
:1001D000000000000000000000000000000000001F
:1001E00000000000000000000000100F0E000000E2
:1001F00000000000000000000000000000000000FF
:1002000000000000CA0F11241FBECFEFD1E2DEBFF5
:10021000CDBF00E00CBF13E0A0E0B2E0EEE0F8E3F9
:1002200000E00BBF02C007900D92A634B107D9F7CA
:100230001BBE15E0A6E4B3E001C01D92A03BB107D0
:10024000E1F712E0C6E0D2E004C02297FE010E946E
:10025000D21BC430D107C9F70E947C0D0C94051C39
:100260000C940000FFCF1F920F920FB60F92112433
:100270002F933F938F939F93AF93BF9380914A03A4
:1002800090914B03A0914C03B0914D0330914E03DC
:100290000196A11DB11D232F2D5F2D3720F02D5765
:1002A0000196A11DB11D20934E0380934A039093A4
:1002B0004B03A0934C03B0934D0380914603909160
:1002C0004703A0914803B09149030196A11DB11DB8
:1002D0008093460390934703A0934803B093490348
:1002E000BF91AF919F918F913F912F910F900FBE32
:1002F0000F901F9018958FB7F89420914A03309172
:100300004B0340914C0350914D038FBFB901CA017B
:1003100008959FB7F8942091460330914703409188
:1003200048035091490386B5A89B06C08F3F21F032
:100330002F5F3F4F4F4F5F4F9FBF542F432F322FA1
:100340002227280F311D411D511D82E0220F331F2E
:10035000441F551F8A95D1F7B901CA0108959B0121
:10036000AC017FB7F8948091460390914703A09128
:100370004803B091490366B5A89B05C06F3F19F0CB
:100380000196A11DB11D7FBFBA2FA92F982F8827D5
:10039000860F911DA11DB11D62E0880F991FAA1F34
:1003A000BB1F6A95D1F7BC012DC0FFB7F8948091AF
:1003B000460390914703A0914803B0914903E6B5E5
:1003C000A89B05C0EF3F19F00196A11DB11DFFBF0D
:1003D000BA2FA92F982F88278E0F911DA11DB11D0F
:1003E000E2E0880F991FAA1FBB1FEA95D1F7861B71
:1003F000970B885E9340C8F22150304040405040F7
:1004000068517C4F211531054105510571F608955C
:10041000019739F0880F991F880F991F029701974C
:10042000F1F70895789484B5826084BD84B58160C5
:1004300084BD85B5826085BD85B5816085BDEEE6EC
:10044000F0E0808181608083E1E8F0E010828081CB
:1004500082608083808181608083E0E8F0E0808139
:1004600081608083E1EBF0E0808184608083E0EB59
:10047000F0E0808181608083E1E9F0E0808182604A
:100480008083808181608083E0E9F0E08081816009
:100490008083E1EAF0E080818260808380818160F6
:1004A0008083E0EAF0E0808181608083E1E2F1E036
:1004B000808182608083808181608083E0E2F1E0DE
:1004C000808181608083EAE7F0E0808184608083BE
:1004D0008081826080838081816080838081806868
:1004E00080831092C1000895482F50E0CA018858B7
:1004F0009E4FFC0124914E5C5E4FFA01849188234B
:10050000C1F0E82FF0E0EE0FFF1FEC51FF4FA59177
:10051000B491662341F49FB7F8948C91209582237F
:100520008C939FBF08959FB7F8948C91822B8C93E6
:100530009FBF0895893009F448C08A30A0F4843000
:1005400049F1853040F4823071F18330F8F4813024
:1005500009F062C025C0873071F1883090F586308F
:1005600009F05AC024C08D3009F441C08E3028F4FF
:100570008B30A9F18C30B8F52CC08F3009F441C014
:100580008F30D8F1803109F047C041C080918000A0
:100590008F7703C0809180008F7D809380000895C5
:1005A00084B58F7702C084B58F7D84BD0895809116
:1005B000B0008F7703C08091B0008F7D8093B00032
:1005C0000895809190008F7707C0809190008F7D73
:1005D00003C080919000877F809390000895809160
:1005E000A0008F7707C08091A0008F7D03C080910D
:1005F000A000877F8093A0000895809120018F77CD
:1006000003C0809120018F7D809320010895809107
:100610002001877F809320010895FF920F931F93FD
:10062000F62E482F50E0CA0182549E4FFC012491BF
:10063000CA0188589E4FFC0114914E5C5E4FFA012E
:1006400004910023D9F0222319F0822F0E949A02EC
:10065000E02FF0E0EE0FFF1FE250FF4FA591B491A5
:10066000FF2031F49FB7F8948C911095812304C03A
:100670009FB7F8948C91812B8C939FBF1F910F9102
:10068000FF9008950F931F93482F50E0CA018254A2
:100690009E4FFC012491CA0188589E4FFC01049191
:1006A0004E5C5E4FFA011491112319F420E030E002
:1006B00015C0222319F0822F0E949A02812F90E008
:1006C000880F991F885E9E4FFC01A591B4918C9173
:1006D00020E030E0802311F021E030E0C9011F91DB
:1006E0000F910895EF92FF920F931F937B018C015E
:1006F00020E030E040E05FE40E94EE0688238CF0CA
:10070000C801B70120E030E040E05FE40E94EA0465
:100710000E94AC079B01AC01205030404040504843
:1007200006C0C801B7010E94AC079B01AC01B9012A
:10073000CA011F910F91FF90EF900895A0E0B0E0E3
:10074000E4EAF3E00C94991BDC012B01FA019C9183
:10075000923008F439C1EB018881823008F433C14A
:10076000943069F4843009F02FC111969C9111974F
:100770008981981709F428C1AAE0B2E025C1843024
:1007800009F421C18230A9F4923009F01DC19A0107
:10079000AD0188E0EA010990AE01E90109929E01EC
:1007A0008150C1F7E201898111969C91892381834F
:1007B00008C1923009F407C112962D903C9013970E
:1007C000EB018A819B811496AD90BD90CD90DC9019
:1007D0001797EC80FD800E811F819101281B390B3A
:1007E000B90137FF04C066277727621B730B60329D
:1007F00071050CF061C0121613066CF53701480143
:10080000062E04C096948794779467940A94D2F73E
:1008100021E030E040E050E004C0220F331F441FCD
:10082000551F6A95D2F721503040404050402E214C
:100830003F2140235123211531054105510521F068
:1008400021E030E040E050E079018A01E628F72815
:10085000082919293CC0232BD1F1260E371E35015A
:100860004601062E04C096948794779467940A9460
:10087000D2F721E030E040E050E004C0220F331F07
:10088000441F551F6A95D2F72150304040405040D8
:100890002A213B214C215D212115310541055105BE
:1008A00021F021E030E040E050E059016A01A62843
:1008B000B728C828D9280BC0821593052CF01C0135
:1008C000AA24BB24650103C0EE24FF2487011196EE
:1008D0009C91D20111968C91981709F445C09923E7
:1008E00039F0A80197012A193B094C095D0906C096
:1008F000A60195012E193F09400B510B57FD08C069
:1009000011823382228224833583468357831DC01C
:1009100081E081833382228288279927DC01821B30
:10092000930BA40BB50B84839583A683B7830DC06B
:10093000220F331F441F551F24833583468357835B
:1009400082819381019793838283248135814681BB
:100950005781DA01C9010197A109B1098F5F9F4F42
:10096000AF4FBF4328F30BC0918333822282EA0C3E
:10097000FB1C0C1D1D1DE482F5820683178383E09A
:100980008083248135814681578157FF1AC0C90170
:10099000AA2797FDA095BA2F81709070A070B070B3
:1009A0005695479537952795822B932BA42BB52BDE
:1009B00084839583A683B7838281938101969383F1
:1009C0008283DF0101C0D201CD01CDB7DEB7E2E104
:1009D0000C94B51BA0E2B0E0E0EFF4E00C94A51B92
:1009E00069837A838B839C832D833E834F835887CF
:1009F000E9E0EE2EF12CEC0EFD1ECE010196B701C2
:100A00000E949D098E010F5E1F4FCE010596B80111
:100A10000E949D098A8991E089278A8BC701B801C4
:100A2000AE01475E5F4F0E949E030E94C808A096D9
:100A3000E6E00C94C11BA0E2B0E0E1E2F5E00C942A
:100A4000A51B69837A838B839C832D833E834F838D
:100A50005887F9E0EF2EF12CEC0EFD1ECE01019629
:100A6000B7010E949D098E010F5E1F4FCE010596B2
:100A7000B8010E949D09C701B801AE01475E5F4FF2
:100A80000E949E030E94C808A096E6E00C94C11B39
:100A9000A0E2B0E0EEE4F5E00C94991B69837A8360
:100AA0008B839C832D833E834F835887CE01019691
:100AB000BE01675F7F4F0E949D09CE010596BE0172
:100AC0006F5E7F4F0E949D099985923088F08989D9
:100AD0008230C8F0943019F4823051F404C084306C
:100AE00029F4923081F48AE092E0C6C0923049F451
:100AF00020E09A858A89981321E02A87CE010996F9
:100B0000BBC0823049F420E09A858A89981321E09D
:100B10002A8BCE014196B0C02D843E844F845888E4
:100B20006D887E888F88988CEE24FF248701AA2404
:100B3000BB24650140E050E060E070E0E0E0F0E000
:100B4000C10181709070892BE9F0E60CF71C081D3B
:100B5000191D9A01AB012A0D3B1D4C1D5D1D80E046
:100B600090E0A0E0B0E0E614F7040805190520F4D1
:100B700081E090E0A0E0B0E0BA01A901480F591F60
:100B80006A1F7B1FAA0CBB1CCC1CDD1C97FE08C077
:100B900081E090E0A0E0B0E0A82AB92ACA2ADB2AC6
:100BA0003196E032F10549F0660C771C881C991CDF
:100BB0005694479437942794C3CFFA85EA892B89B2
:100BC0003C898B859C85280F391F2E5F3F4F17C0AE
:100BD000CA0181709070892B61F016950795F79482
:100BE000E79480E090E0A0E0B0E8E82AF92A0A2B38
:100BF0001B2B76956795579547952F5F3F4F77FD50
:100C0000E7CF0CC0440F551F661F771F17FD4160CB
:100C1000EE0CFF1C001F111F21503040403090E0AF
:100C2000590790E0690790E4790760F32B8F3C8FB8
:100C3000DB01CA018F779070A070B070803491058D
:100C4000A105B10561F447FD0AC0E114F1040105F5
:100C5000110529F0405C5F4F6F4F7F4F40781A8E2F
:100C6000FE1711F081E08A8F4D8F5E8F6F8F78A312
:100C700083E0898FCE0149960E94C808A096E2E1E0
:100C80000C94B51BA8E1B0E0E8E4F6E00C94A11BDD
:100C900069837A838B839C832D833E834F8358871C
:100CA000B9E0EB2EF12CEC0EFD1ECE010196B70142
:100CB0000E949D098E010F5E1F4FCE010596B8015F
:100CC0000E949D092985223008F47EC0398932307E
:100CD00010F4B8017CC08A859A8989278A872430D4
:100CE00011F0223031F4231709F06EC06AE072E08F
:100CF0006EC0343039F41D861E861F86188A1C8605
:100D00001B8604C0323021F484E08987B7015FC0BC
:100D10002B853C858B899C89281B390B3C872B872D
:100D2000ED84FE840F851889AD88BE88CF88D88C65
:100D3000EA14FB040C051D0540F4EE0CFF1C001F1B
:100D4000111F215030403C872B8720E030E040E0ED
:100D500050E080E090E0A0E0B0E460E070E0EA14F1
:100D6000FB040C051D0540F0282B392B4A2B5B2B6F
:100D7000EA18FB080C091D09B695A7959795879564
:100D8000EE0CFF1C001F111F6F5F7F4F6F3171054D
:100D900031F7DA01C9018F779070A070B07080349C
:100DA0009105A105B10561F427FD0AC0E114F10424
:100DB0000105110529F0205C3F4F4F4F5F4F207810
:100DC0002D873E874F87588BBE01675F7F4FCB01D2
:100DD0000E94C8086896EAE00C94BD1BA8E1B0E048
:100DE000E4EFF6E00C94A51B69837A838B839C83E4
:100DF0002D833E834F83588789E0E82EF12CEC0E3B
:100E0000FD1ECE010196B7010E949D098E010F5E65
:100E10001F4FCE010596B8010E949D098985823039
:100E200040F08989823028F0C701B8010E94150A74
:100E300001C08FEF6896E6E00C94C11BA8E1B0E01A
:100E4000E4E2F7E00C94A51B69837A838B839C838F
:100E50002D833E834F83588789E0E82EF12CEC0EDA
:100E6000FD1ECE010196B7010E949D098E010F5E05
:100E70001F4FCE010596B8010E949D0989858230D9
:100E800040F08989823028F0C701B8010E94150A14
:100E900001C081E06896E6E00C94C11BA8E0B0E0D8
:100EA000E4E5F7E00C94A21B9B01AC0183E089838D
:100EB000DA01C9018827B7FD83959927AA27BB279F
:100EC000B82E211531054105510519F482E08983B9
:100ED0003AC08823A9F0203080E0380780E0480736
:100EE00080E8580729F460E070E080E09FEC30C0B3
:100EF000EE24FF248701E21AF30A040B150B02C04B
:100F000079018A018EE1C82ED12CDC82CB82ED8260
:100F1000FE820F831887C801B7010E9479080197E4
:100F20001816190684F4082E04C0EE0CFF1C001FCE
:100F3000111F0A94D2F7ED82FE820F831887C81A18
:100F4000D90ADC82CB82BA82CE0101960E94C808FF
:100F50002896E9E00C94BE1BACE0B0E0E2EBF7E0D1
:100F60000C94A91B69837A838B839C83CE010196A1
:100F7000BE016B5F7F4F0E949D098D81823061F1C0
:100F8000823050F1843021F48E81882351F12EC0BB
:100F90002F81388537FD20C06E812F3131051CF03F
:100FA0006623F9F023C08EE190E0821B930B298524
:100FB0003A854B855C8504C05695479537952795AE
:100FC0008A95D2F76623B1F05095409530952195DA
:100FD0003F4F4F4F5F4F0EC020E030E040E050E009
:100FE00009C02FEF3FEF4FEF5FE704C020E030E094
:100FF00040E050E8B901CA012C96E2E00C94C51B10
:10100000A8E0B0E0E6E0F8E00C94A11B7B018C01C5
:10101000611571058105910519F482E0898360C02D
:1010200083E089838EE1C82ED12CDC82CB82ED82D5
:10103000FE820F831887C801B7010E947908FC015E
:101040003197F7FF3BC0222733272E1B3F0B570159
:101050006801022E04C0D694C794B794A7940A944A
:10106000D2F740E050E060E070E081E090E0A0E086
:10107000B0E004C0880F991FAA1FBB1F2A95D2F7A2
:101080000197A109B1098E219F21A023B1230097C7
:10109000A105B10521F041E050E060E070E04A298F
:1010A0005B296C297D294D835E836F8378878EE170
:1010B00090E08E1B9F0B9C838B8312C0309781F036
:1010C0000E2E04C0EE0CFF1C001F111F0A94D2F755
:1010D000ED82FE820F831887CE1ADF0ADC82CB8274
:1010E0001A82CE0101960E94C8082896EAE00C9464
:1010F000BD1BEF92FF920F931F937B018C0180E049
:10110000E81680E0F80681E0080780E0180788F418
:101110008FEFE816F1040105110531F028F088E0A1
:1011200090E0A0E0B0E017C080E090E0A0E0B0E088
:1011300012C080E0E81680E0F80680E0080781E051
:10114000180728F088E190E0A0E0B0E004C080E15A
:1011500090E0A0E0B0E020E230E040E050E0281B6A
:10116000390B4A0B5B0B04C016950795F794E7946F
:101170008A95D2F7F701EE5EFD4F8081281B310979
:1011800041095109C9011F910F91FF90EF900895F6
:10119000DF92EF92FF920F931F93FC01E480F580A2
:1011A00006811781D1808081823048F480E090E010
:1011B000A0E1B0E0E82AF92A0A2B1B2BA5C0843055
:1011C00009F49FC0823021F4EE24FF24870105C07A
:1011D000E114F1040105110519F4E0E0F0E096C016
:1011E000628173819FEF623879070CF05BC022E85F
:1011F0003FEF261B370B2A3131052CF020E030E081
:1012000040E050E02AC0B801A701022E04C0769544
:101210006795579547950A94D2F781E090E0A0E052
:10122000B0E004C0880F991FAA1FBB1F2A95D2F7F0
:101230000197A109B1098E219F21A023B123009715
:10124000A105B10521F081E090E0A0E0B0E09A01B5
:10125000AB01282B392B4A2B5B2BDA01C9018F7785
:101260009070A070B07080349105A105B10539F47B
:1012700027FF09C0205C3F4F4F4F5F4F04C0215CE8
:101280003F4F4F4F5F4FE0E0F0E02030A0E03A07E3
:10129000A0E04A07A0E45A0710F0E1E0F0E079018D
:1012A0008A0127C06038710564F5FB01E158FF4FE2
:1012B000D801C7018F779070A070B070803491050D
:1012C000A105B10539F4E7FE0DC080E490E0A0E08F
:1012D000B0E004C08FE390E0A0E0B0E0E80EF91EBB
:1012E0000A1F1B1F17FF05C016950795F794E79473
:1012F000319687E016950795F794E7948A95D1F78C
:1013000005C0EE24FF248701EFEFF0E06E2F679514
:1013100066276795902F9F77D794DD24D7948E2FDB
:101320008695492F462B582F5D29B701CA011F9179
:101330000F91FF90EF90DF900895FC01DB01408159
:1013400051812281622F6F7770E0221F2227221F96
:101350009381892F880F822B282F30E0991F99279E
:10136000991F11969C93119721153105A9F54115E7
:1013700051056105710511F482E037C082E89FEFE5
:1013800013969C938E9312979A01AB0167E0220FFC
:10139000331F441F551F6A95D1F783E08C930DC00E
:1013A000220F331F441F551F12968D919C91139746
:1013B000019713969C938E931297203080E0380704
:1013C00080E0480780E4580758F314962D933D9326
:1013D0004D935C93179708952F3F310579F441158C
:1013E00051056105710519F484E08C93089564FF3B
:1013F00003C081E08C9312C01C9210C02F57304064
:1014000013963C932E93129783E08C9387E0440FBE
:10141000551F661F771F8A95D1F7706414964D93F8
:101420005D936D937C93179708951F93DC01FB01E7
:101430009C91923008F447C08081823008F443C008
:10144000943051F411961C91843099F58181682F64
:1014500070E0611B71093FC0843021F0923031F49B
:101460008230B9F18181882389F12DC011961C91B8
:1014700011978230F1F081811817D9F412962D91CD
:101480003C911397828193818217930794F02817D8
:101490003907BCF014968D919D910D90BC91A02DB3
:1014A0002481358146815781281739074A075B0710
:1014B00018F4112341F00AC082179307A407B50757
:1014C00040F4112319F061E070E005C06FEF7FEF89
:1014D00002C060E070E0CB011F910895CF93DF93CD
:1014E000BC018230910510F462E070E0A091AE057D
:1014F000B091AF05ED01E0E0F0E040E050E021C048
:10150000888199818617970769F48A819B81309732
:1015100019F09383828304C09093AF058093AE0546
:10152000FE0134C06817790738F44115510519F0E8
:101530008417950708F4AC01FE018A819B819C0108
:10154000E9012097E9F641155105A9F1CA01861B69
:10155000970B049708F4BA01E0E0F0E02AC08D91FF
:101560009C91119784179507F9F46417750781F416
:1015700012968D919C911397309719F093838283E3
:1015800004C09093AF058093AE05FD0132964CC028
:10159000CA01861B970BFD01E80FF91F6193719338
:1015A00002978D939C9340C0FD01828193819C01A1
:1015B000D9011097A1F68091AC059091AD05892BCA
:1015C00041F480911403909115039093AD0580939D
:1015D000AC0540911603509117034115510541F494
:1015E0004DB75EB78091120390911303481B590BBE
:1015F0002091AC053091AD05CA01821B930B861773
:10160000970780F0AB014E5F5F4F8417950750F04E
:10161000420F531F5093AD054093AC05F901619300
:10162000719302C0E0E0F0E0CF01DF91CF91089527
:10163000CF93DF93009709F450C0EC0122971B82EF
:101640001A82A091AE05B091AF05109709F140E064
:1016500050E0AC17BD0708F1BB83AA83FE012191BE
:101660003191E20FF31FAE17BF0779F48D919C9172
:101670001197280F391F2E5F3F4F39832883129609
:101680008D919C9113979B838A834115510571F429
:10169000D093AF05C093AE0520C012968D919C915A
:1016A0001397AD01009711F0DC01D3CFFA01D3837A
:1016B000C28321913191E20FF31FCE17DF0769F446
:1016C00088819981280F391F2E5F3F4FFA0131839E
:1016D00020838A819B8193838283DF91CF910895B8
:1016E000A0E0B0E0E6E7FBE00C949B1B6C010097E8
:1016F00029F4CB010E946E0A6C01C1C08EEF882EC6
:101700008FEF982E8C0C9D1C8601060F171F081555
:10171000190508F4B2C0F401A081B181A617B7077A
:10172000B8F0A530B10508F4AAC0CD01049786171A
:10173000970708F4A4C01297A61BB70BF801A19352
:10174000B193D4016D937C93CF010E94180B97C085
:101750007B01EA1AFB0AEEEFFFEFEE0EFF1E3601E9
:101760006A0E7B1EC091AE05D091AF05442455246E
:10177000AA24BB244AC0C615D705E1F54881598182
:101780004E155F05B8F1CA0104978E159F05B0F498
:101790001296A40FB51FF401B183A0832A813B8167
:1017A0004114510431F0D20113963C932E931297B9
:1017B00066C03093AF052093AE0561C08A819B81DE
:1017C000F80193838283425050404E195F09518340
:1017D00040834114510431F0D20113961C930E93AF
:1017E000129704C01093AF050093AE05F401718306
:1017F000608345C088819981A816B90608F45C0108
:101800002E018A819B819C01E901209709F0B3CFC9
:101810008091AC059091AD0586159705E9F4A61663
:10182000B706D0F420911603309117032115310526
:1018300041F42DB73EB78091120390911303281BFA
:10184000390B02171307C8F41093AD050093AC05CC
:10185000D4016D937C9313C0CB010E946E0AEC01FE
:10186000009759F0F40140815181B6010E946C0C3F
:10187000C6010E94180B6E0102C0CC24DD24C601F3
:10188000CDB7DEB7E0E10C94B71B1F93FC0199279D
:101890008827BC01E89411911032E9F3193010F057
:1018A0001E30C8F31B3251F01D3249F4689406C053
:1018B0000E94320D610F711D811D911D11911053F8
:1018C0001A30B0F33EF490958095709561957F4FF6
:1018D0008F4F9F4F1F910895FB01DC0102C00190C3
:1018E0000D9241505040D8F70895FB01DC010D9056
:1018F0000020E9F7119701900D920020E1F708957B
:10190000FC018191861721F08823D9F79927089542
:101910003197CF010895FB01DC018D910190801971
:101920000110D9F3990B0895FB01DC0101900D9290
:101930000020E1F70895FB01DC014150504030F0F8
:101940008D910190801919F40020B9F7881B990B2B
:101950000895FB01DC014150504048F001900D9288
:101960000020C9F701C01D9241505040E0F7089592
:10197000FC0181E090E00190061609F4CF010020FF
:10198000D1F701970895FB0151915523A9F0BF01AB
:10199000DC014D9145174111E1F759F4CD0101905A
:1019A000002049F04D9140154111C9F3FB0141114F
:1019B000EFCF81E090E001970895FB019F01E8944B
:1019C0004230C4F04532B4F44A3029F497FB1EF497
:1019D000909581959F4F642F77270E94F11B805D22
:1019E0008A330CF0895D8193CB010097A1F716F43F
:1019F0005DE251931082C9010C946C0DFA01CF93F2
:101A0000FF93EF93223044F1253234F5C22FE8944E
:101A1000CA3049F497FB3EF4909580957095619596
:101A20007F4F8F4F9F4F2C2F332744275527FF93EE
:101A3000EF930E94771BEF91FF91605D6A330CF08A
:101A4000695D6193B901CA01605070408040904067
:101A500051F716F4CDE2C19310828F919F91CF91EF
:101A60000C946C0D592F482F372F262F660F771F98
:101A7000881F991F660F771F881F991F620F731F9A
:101A8000841F951F660F771F881F991F0895FA01FD
:101A9000CF93FF93EF932230CCF02532BCF4C22FCA
:101AA0002C2F332744275527FF93EF930E94771B52
:101AB000EF91FF91605D6A330CF0695D6193B9014C
:101AC000CA01605070408040904051F710828F9161
:101AD0009F91CF910C946C0DDC01FC01672F7191EB
:101AE0007723E1F7329704C07C916D937083629104
:101AF000AE17BF07C8F308950E9412028FE595E064
:101B000040E855E260E070E00E94D90E8DE061E0AF
:101B10000E9474028FE595E060E072E00E947D1201
:101B20008DE061E00E940D036DE770E080E090E0E1
:101B30000E94AF018DE060E00E940D036DE770E050
:101B400080E090E00E94AF01EBCF1F920F920FB6A2
:101B50000F920BB60F9211242F933F934F938F93B5
:101B60009F93EF93FF934091C600E091CF03F091D4
:101B7000D00331969F012F77307031978091D10338
:101B80009091D2032817390739F0E15BFC4F40836D
:101B90003093D0032093CF03FF91EF919F918F91CA
:101BA0004F913F912F910F900BBE0F900FBE0F9052
:101BB0001F9018951F920F920FB60F920BB60F92AF
:101BC00011242F933F934F938F939F93EF93FF9302
:101BD0004091CE00E0915304F091540431969F015E
:101BE0002F773070319780915504909156042817C3
:101BF000390739F0ED52FC4F408330935404209361
:101C00005304FF91EF919F918F914F913F912F91AD
:101C10000F900BBE0F900FBE0F901F9018951F9244
:101C20000F920FB60F920BB60F9211242F933F9382
:101C30004F938F939F93EF93FF934091D600E09142
:101C4000D704F091D80431969F012F7730703197E7
:101C50008091D9049091DA042817390739F0E95AAC
:101C6000FB4F40833093D8042093D704FF91EF912A
:101C70009F918F914F913F912F910F900BBE0F909D
:101C80000FBE0F901F9018951F920F920FB60F92D4
:101C90000BB60F9211242F933F934F938F939F93E3
:101CA000EF93FF9340913601E0915B05F0915C0565
:101CB00031969F012F773070319780915D0590911B
:101CC0005E052817390739F0E552FB4F4083309302
:101CD0005C0520935B05FF91EF919F918F914F9150
:101CE0003F912F910F900BBE0F900FBE0F901F9042
:101CF00018958F92AF92CF92DF92EF92FF920F934F
:101D00001F93DF93CF93CDB7DEB7FC018CE193E057
:101D100091838083738362835583448337832683CF
:101D200011870087F386E286D586C486A6868786D5
:101D30008E85808B8F85818B8889828BCF91DF9177
:101D40001F910F91FF90EF90DF90CF90AF908F9009
:101D500008958F92AF92CF92DF92EF92FF920F93FE
:101D60001F93DF93CF93CDB7DEB7FC018CE193E0F7
:101D7000918380837383628355834483378326836F
:101D800011870087F386E286D586C486A686878675
:101D90008E85808B8F85818B8889828BCF91DF9117
:101DA0001F910F91FF90EF90DF90CF90AF908F90A9
:101DB0000895CF93DF93EC019A01AB01E885F98593
:101DC000203081EE380780E0480780E0580709F4AA
:101DD00045C081E090E00A8802C0880F991F0A94EC
:101DE000E2F7808360E079E08DE390E00E94771B6A
:101DF00021503040404050405695479537952795A3
:101E0000EC81FD813083EE81FF812083EA85FB85B3
:101E1000208141E050E0CA010E8402C0880F991F62
:101E20000A94E2F7282B2083EA85FB852081CA01EA
:101E30000F8402C0880F991F0A94E2F7282B208391
:101E4000EA85FB858081088802C0440F551F0A94EB
:101E5000E2F7842B8083DF91CF910895108220E1F7
:101E600030E0CECFFC01A285B3854C9121E030E07B
:101E7000C901068402C0880F991F0A94E2F7809571
:101E800084238C93A285B3854C91C901078402C039
:101E9000880F991F0A94E2F7809584238C93A2857A
:101EA000B3858C91008802C0220F331F0A94E2F799
:101EB000209528232C930895DC011296ED91FC9136
:101EC0001397E058FF4F2191319180819181281B18
:101ED000390B2F773070C9010895DC011296ED910E
:101EE000FC911397EE57FF4F20813181929182919F
:101EF000E058F0408217930719F42FEF3FEF05C029
:101F0000E20FF31F8081282F30E0C9010895DC0122
:101F10001296ED91FC911397DF01AE57BF4F2D91B3
:101F20003C911197E058FF4F80819181E058F0403B
:101F30008217930719F42FEF3FEF0BC0E20FF31F47
:101F400080812F5F3F4F2F7730702D933C93282F48
:101F500030E0C9010895DC011296ED91FC911397D0
:101F6000EE57FF4F80819181929382930895FC01F7
:101F7000A085B18521898C9190E0022E02C09595B3
:101F800087950A94E2F780FFF6CF0484F585E02D6B
:101F9000608308952CE133E03093600520935F0562
:101FA0008FE493E0909362058093610585EC90E067
:101FB000909364058093630584EC90E090936605AC
:101FC0008093650580EC90E09093680580936705A9
:101FD00081EC90E090936A058093690586EC90E02F
:101FE00090936C0580936B05E4E0E0936D0573E0DE
:101FF00070936E0567E060936F0555E05093700530
:1020000041E040937105309373052093720583ED91
:1020100093E090937505809374058DEC90E0909318
:102020007705809376058CEC90E09093790580930A
:10203000780588EC90E090937B0580937A0589EC95
:1020400090E090937D0580937C058EEC90E09093DA
:102050007F0580937E05E0938005709381056093F2
:102060008205509383054093840530938605209321
:10207000850587E594E0909388058093870585ED35
:1020800090E090938A058093890584ED90E0909389
:102090008C0580938B0580ED90E090938E05809366
:1020A0008D0581ED90E09093900580938F0586EDEE
:1020B00090E09093920580939105E093930570933F
:1020C000940560939505509396054093970530933A
:1020D0009905209398058BED94E090939B05809350
:1020E0009A0585E391E090939D0580939C0584E398
:1020F00091E090939F0580939E0580E391E09093FB
:10210000A1058093A00581E391E09093A3058093BE
:10211000A20586E391E09093A5058093A405E09342
:10212000A6057093A7056093A8055093A905409351
:10213000AA0508950F931F93CF93DF938C01EB01B2
:1021400009C02196D801ED91FC910190F081E02D1C
:10215000C801199568816623A1F7DF91CF911F917E
:102160000F910895EF92FF920F931F93CF93DF93F8
:102170008C017B01EA010CC0D7016D917D01D80172
:10218000ED91FC910190F081E02DC8011995219706
:10219000209791F7DF91CF911F910F91FF90EF90D2
:1021A0000895DC01ED91FC910280F381E02D1995F9
:1021B0000895CF92DF92EF92FF920F931F93CF93E8
:1021C000DF936C017B01C0E0D0E00EC0D601ED9141
:1021D000FC9100811181C701BE010E949B13682FF1
:1021E000C601F80119952196F70184819581C817D8
:1021F000D90760F3DF91CF911F910F91FF90EF907E
:10220000DF90CF9008952F923F924F925F926F92FE
:102210007F928F929F92AF92BF92CF92DF92EF9276
:10222000FF920F931F93DF93CF93CDB7DEB7A097A5
:102230000FB6F894DEBF0FBECDBF1C016A017B0153
:10224000411551056105710549F440E350E060E036
:1022500070E020E030E00E94CD1154C08824992421
:102260005401422E55246624772401E010E00C0F1F
:102270001D1F080D191DC701B601A30192010E947F
:10228000771BF80160830894811C911CA11CB11C70
:10229000C701B601A30192010E94771BC901DA01AF
:1022A0006C017D01C114D104E104F104F1F681E077
:1022B000E82EF12CEC0EFD1EE80CF91C3E010894F2
:1022C000611C711CD501C4010197A109B1096C0100
:1022D000C818D90814C0F601EE0DFF1D40814A3020
:1022E00010F4405D01C0495C50E060E070E0C10165
:1022F00020E030E00E94CD110894E108F1086E144E
:102300007F0449F7A0960FB6F894DEBF0FBECDBF8D
:10231000CF91DF911F910F91FF90EF90DF90CF90C1
:10232000BF90AF909F908F907F906F905F904F90F5
:102330003F902F900895DC012115310541F4ED9176
:10234000FC910190F081E02D642F199508950E9471
:1023500003110895EF92FF920F931F939A017B014F
:1023600000E010E0B801A7010E949B111F910F919E
:10237000FF90EF900895EF92FF920F931F939A01B1
:10238000E62EFF2400E010E0B801A7010E949B1197
:102390001F910F91FF90EF900895EF92FF920F938E
:1023A0001F93CF93DF93EC017A018B012115310547
:1023B00041F4E881F9810190F081E02D642F1995B5
:1023C0001BC02A303105B1F477FF10C04DE250E058
:1023D00060E070E020E030E00E94CD1110950095A3
:1023E000F094E094E11CF11C011D111DCE01B80117
:1023F000A7012AE00E940311DF91CF911F910F9155
:10240000FF90EF900895EF92FF920F931F937B013F
:102410009A010027F7FC0095102FB801A7010E9430
:10242000CD111F910F91FF90EF900895EF92FF92C1
:102430000F931F939A01E62EFF2400E010E0B801ED
:10244000A7010E94CD111F910F91FF90EF90089569
:102450000F931F938C014DE050E060E070E020E0AE
:1024600030E00E94CD11C8014AE050E060E070E029
:1024700020E030E00E94CD111F910F9108950F933D
:102480001F938C010E949B11C8010E9428121F916A
:102490000F910895CF92DF92EF92FF920F931F93C7
:1024A0008C019A016B01EE24FF24B701A6010E9462
:1024B0009B11C8010E9428121F910F91FF90EF906D
:1024C000DF90CF900895CF92DF92EF92FF920F931B
:1024D0001F938C019A01C62EDD24EE24FF24B70140
:1024E000A6010E949B11C8010E9428121F910F9102
:1024F000FF90EF90DF90CF9008950F931F938C0182
:102500000E94D110C8010E9428121F910F910895B6
:102510000F931F938C010E94D910C8010E942812AA
:102520001F910F9108950F931F938C010E94CD115D
:10253000C8010E9428121F910F910895CF92DF9237
:10254000EF92FF920F931F938C016B019A01EE247F
:10255000D7FCE094FE2CB701A6010E94CD11C80162
:102560000E9428121F910F91FF90EF90DF90CF9063
:102570000895CF92DF92EF92FF920F931F938C01F9
:102580009A01C62EDD24EE24FF24B701A6010E9485
:10259000CD11C8010E9428121F910F91FF90EF905A
:1025A000DF90CF9008959F92AF92BF92CF92DF922B
:1025B000EF92FF920F931F93CF93DF93EC017A0179
:1025C0008B01922ECB01BA0120E030E040E050E0D8
:1025D0000E941E0788236CF4CE014DE250E060E0BB
:1025E00070E020E030E00E94CD1117FB109517F944
:1025F000109520E030E040E05FE3AA240BC0CA0160
:10260000B90120E030E040E251E40E9442069B0123
:10261000AC01A394A91498F3C801B7010E941B054B
:102620005B016C010E9472037B018C01CE01B80139
:10263000A7012AE030E00E949B11992029F0CE01E9
:1026400067E072E00E94D110C801B7010E94000843
:102650009B01AC01C601B5010E94EA0422C020E042
:1026600030E040E251E40E9448057B018C010E9469
:10267000AC075B016C01CC24B7FCC094DC2CCE0110
:10268000B601A5012AE030E00E94CD11C601B501D6
:102690000E944E079B01AC01C801B7010E94EA04E9
:1026A0009A949920E1F6DF91CF911F910F91FF90BD
:1026B000EF90DF90CF90BF90AF909F9008950E94D1
:1026C000D31208950F931F938C010E94D312C80157
:1026D0000E9428121F910F910895FC010190F08132
:1026E000E02DE60FF71F80810895DC01ED91FC914C
:1026F0001197309751F014968D919C91159768170A
:10270000790718F4E60FF71F40830895FC019B0139
:10271000848195816817790728F46081718161153A
:10272000710529F41092AB056BEA75E002C0620FE7
:10273000731FCB010895FC010190F081E02DE60F9D
:10274000F71F80810895FC01808191810E94450CD2
:1027500008950F931F93CF93DF93FC018B014115D5
:102760005105A1F06115710589F084819581EA0117
:1027700021978C179D0708F4EC0160817181C801D5
:10278000AE010E94A90CC00FD11F1882DF91CF911A
:102790001F910F9108950F931F93CF93DF93FC0127
:1027A0008B0141155105A1F06115710589F08481F6
:1027B0009581EA0121978C179D0708F4EC0160814F
:1027C0007181C801AE010E94A90CC00FD11F1882EF
:1027D000DF91CF911F910F9108950F931F938C015B
:1027E000FC01808191810E94180BF80113821282F2
:1027F000158214821F910F910895FC01DB0114963C
:102800002D913C91159784819581821B930B8417A0
:10281000950710F480E00895808191816D917C91FD
:10282000840F951FA9010E949B0C9C0180E0232B23
:1028300009F481E00895FC01DB01248135811496BF
:102840008D919C9115972817390710F480E0089511
:10285000CF0140E050E00E94FD130895DF92EF9217
:10286000FF920F931F93CF93DF93EC018C819D8197
:1028700048175907B8F47A010894E11CF11CE88163
:10288000F981EE0DFF1DD080108208811981C801E9
:1028900070E00E94B80C9C010E0D1F1DF801D08243
:1028A000009719F4EFEFFFEF05C088819981F901D6
:1028B000E81BF90BCF01DF91CF911F910F91FF9092
:1028C000EF90DF900895FC014481558141505040C4
:1028D0000E942E140895CF93DF93FC01DB018481C5
:1028E00095814817590760F4C081D1816D917C9121
:1028F000CE01840F951F0E94C30C9C01009719F410
:102900002FEF3FEF02C02C1B3D0BC901DF91CF9190
:10291000089540E050E00E946B140895CF93DF9338
:10292000FC01848195814817590758F4C081D181F1
:10293000CE01840F951F70E00E94800C9C010097CF
:1029400019F42FEF3FEF02C02C1B3D0BC901DF91A3
:10295000CF91089540E050E00E948E140895DC016C
:10296000FB0114962D913C91159784819581281730
:10297000390711F080E00895608171818D919C91FB
:102980000E948B0C9C0180E0232B09F481E00895C8
:10299000FC01DB012481358114968D919C91159762
:1029A0002817390710F480E00895281B390B80811F
:1029B00091816D917C91820F931F0E948B0C9C01E1
:1029C00080E0232B09F481E00895DC01FB016081A4
:1029D00071818D919C910E948B0C292F332727FDAB
:1029E0003095209530952227330F221F3327C901B8
:1029F0000895DC01FB01608171818D919C910E94A1
:102A00008B0C40E050E01816190614F041E050E03D
:102A1000CA010895DC01FB01608171818D919C9157
:102A20000E948B0C40E050E01816190614F441E0A7
:102A300050E0CA010895DC01FB01608171818D9134
:102A40009C910E948B0C292F332727FD309522273C
:102A5000330F221F3327C9010895DC01FB011496AF
:102A60002D913C911597848195812817390751F450
:102A7000608171818D919C910E948B0C9C0180E002
:102A8000232B09F081E090E00895DC01FB0114960E
:102A90002D913C911597848195812817390711F064
:102AA00080E00BC0608171818D919C910E948B0CA4
:102AB0009C0180E0232B09F481E090E00895FC0163
:102AC000DB016D917C91808191810E948B0C089536
:102AD0000F931F93CF93DF93EC018B01FB01648174
:102AE00075818C819D81680F791F7D836C838A81BC
:102AF0009B8186179707B8F46F5F7F4F8881998114
:102B00000E94700B4C815D81009729F09983888326
:102B10005B834A8308C0F80184819581481B590B67
:102B20005D834C8307C0F801608171818881998140
:102B30000E94750CCE01DF91CF911F910F910895E6
:102B40000E9468150895CF93DF93EC01CB017B833E
:102B50006A8301960E946E0A99838883009721F404
:102B60001B821A821D821C82DF91CF9108950F93E0
:102B70001F93CF93DF93EC018B018617970709F121
:102B8000FB01248135818C819D818217930750F44C
:102B9000888199810E94180BF80164817581CE01AA
:102BA0000E94A315288139812115310551F0F801C2
:102BB000848195819D838C8360817181C9010E948C
:102BC000940CCE01DF91CF911F910F9108951F9327
:102BD000CF93DF93EC01162F81E090E09D838C83EF
:102BE000CE0161E070E00E94A315E881F981309781
:102BF00021F01083E881F9811182DF91CF911F913B
:102C000008951F93CF93DF93EC01162F81E090E09E
:102C10009D838C83CE0161E070E00E94A315E88162
:102C2000F981309721F01083E881F9811182DF91D9
:102C3000CF911F9108951F93CF93DF93EC01162F2F
:102C400081E090E09D838C83CE0161E070E00E9482
:102C5000A315E881F981309721F01083E881F9818B
:102C60001182DF91CF911F9108951F93CF93DF932E
:102C7000EC01162F81E090E09D838C83CE0161E012
:102C800070E00E94A315E881F981309721F010834C
:102C9000E881F9811182DF91CF911F9108950F93FF
:102CA0001F93CF93DF938C01EB016C817D81FC013D
:102CB000758364830E94A315F80180819181009738
:102CC00021F0688179810E94940CDF91CF911F914E
:102CD0000F9108950F931F93CF93DF938C01EB0116
:102CE0006C817D81FC01758364830E94A315F801CA
:102CF00080819181009721F0688179810E94940CF4
:102D0000DF91CF911F910F910895EF92FF920F9352
:102D10001F93DF93CF93CDB7DEB7A1970FB6F8948B
:102D2000DEBF0FBECDBF8C01CB01BA017E0108947E
:102D3000E11CF11CA7012AE030E00E94470DF701D9
:102D400001900020E9F73197EE19FF09D801159697
:102D5000FC93EE931497C801BF010E94A315F801DC
:102D600080819181009719F0B7010E94940CA1967F
:102D70000FB6F894DEBF0FBECDBFCF91DF911F918C
:102D80000F91FF90EF900895EF92FF920F931F9392
:102D9000DF93CF93CDB7DEB7A1970FB6F894DEBF20
:102DA0000FBECDBF8C01CB01BA017E010894E11C9E
:102DB000F11CA7012AE030E00E94470DF7010190C5
:102DC0000020E9F73197EE19FF09D8011596FC9319
:102DD000EE931497C801BF010E94A315F8018081EA
:102DE0009181009719F0B7010E94940CA1960FB63B
:102DF000F894DEBF0FBECDBFCF91DF911F910F9131
:102E0000FF90EF900895EF92FF920F931F93DF933F
:102E1000CF93CDB7DEB7A1970FB6F894DEBF0FBE44
:102E2000CDBF8C019A0180E090E07E010894E11C06
:102E3000F11CA7010E94470DF70101900020E9F75E
:102E40003197EE19FF09D8011596FC93EE9314976C
:102E5000C801BF010E94A315F801808191810097EC
:102E600019F0B7010E94940CA1960FB6F894DEBF3A
:102E70000FBECDBFCF91DF911F910F91FF90EF90CB
:102E80000895EF92FF920F931F93DF93CF93CDB7E7
:102E9000DEB7A1970FB6F894DEBF0FBECDBF8C0191
:102EA0009A0180E090E07E010894E11CF11CA701EA
:102EB0000E94470DF70101900020E9F73197EE19C4
:102EC000FF09D8011596FC93EE931497C801BF0132
:102ED0000E94A315F80180819181009719F0B70134
:102EE0000E94940CA1960FB6F894DEBF0FBECDBF22
:102EF000CF91DF911F910F91FF90EF9008950F9365
:102F00001F93CF93DF938C01EB016115710511F4D1
:102F1000C9E0D2E0FE0101900020E9F73197EC1BF7
:102F2000FD0BD8011596FC93EE931497C801BF01D1
:102F30000E94A315F80180819181009719F0BE01CC
:102F40000E94940CDF91CF911F910F910895AF9241
:102F5000BF92CF92DF92EF92FF920F931F93CF9386
:102F6000DF93B82EA92E6B01C82FD92FFB016081EA
:102F70007181CE010E947F17EE24FF240EC00881CC
:102F800019810E0D1F1DF801808190E00E94E61B43
:102F9000F80180830894E11CF11CF601848195817D
:102FA000E816F90660F38B2D9A2DDF91CF911F91D2
:102FB0000F91FF90EF90DF90CF90BF90AF9008956A
:102FC000AF92BF92CF92DF92EF92FF920F931F9337
:102FD000CF93DF93B82EA92E6B01C82FD92FFB01F9
:102FE00060817181CE010E947F17EE24FF240EC004
:102FF000088119810E0D1F1DF801808190E00E944B
:10300000DE1BF80180830894E11CF11CF601848129
:103010009581E816F90660F38B2D9A2DDF91CF91FB
:103020001F910F91FF90EF90DF90CF90BF90AF90E6
:103030000895EF92FF920F931F93DF93CF93CDB735
:10304000DEB72C970FB6F894DEBF0FBECDBFFC01E4
:103050007B018617970711F401E029C0248135818F
:10306000DB0114968D919C9115972817390711F063
:1030700000E01DC0CE010196BF010E94E01709814A
:103080001A81CE010796B7010E94E0176F817885FB
:10309000C8010E948B0C00E0009709F401E0CE010A
:1030A00007960E94ED13CE0101960E94ED13802F2A
:1030B0002C960FB6F894DEBF0FBECDBFCF91DF9137
:1030C0001F910F91FF90EF900895CF92DF92EF92B2
:1030D000FF921F93CF93DF936C017B01B9012417FB
:1030E000350710F4BA01A901D70114968D919C916E
:1030F0001597EB018617970708F4EC01D701ED91BE
:10310000FC911197EC0FFD1F108110826D917C9145
:10311000640F751FC6010E947F17D701ED91FC91C6
:10312000EC0FFD1F1083C601DF91CF911F91FF901F
:10313000EF90DF90CF9008950F931F938C01FB01C8
:10314000248135810E946518C8011F910F9108954F
:103150008F929F92AF92BF92CF92DF92EF92FF92A7
:103160000F931F93DF93CF9300D000D0CDB7DEB77E
:103170005C016B01DB0114968D919C911597009772
:10318000A1F101974817590780F1F50184819581D4
:103190004817590750F5ED91FC9100817A014E01D5
:1031A0000894811C911C1FC0D501ED91FC91EE0D7E
:1031B000FF1D80818017A1F4F601248135812E0D39
:1031C0003F1DC401B501A7010E946518C401B601E5
:1031D0000E94AF14182FC4010E94ED13112341F473
:1031E0000894E108F108F7FEDFCFEE24EA94FE2C04
:1031F000C70126960FB6F894DEBF0FBECDBFCF91A4
:10320000DF911F910F91FF90EF90DF90CF90BF90D3
:10321000AF909F908F900895FC01DB014481558110
:1032200014968D919C911597481B590BCF010E94C4
:10323000A8180895AF92BF92CF92DF92EF92FF92BB
:103240000F931F93DF93CF9300D000D0CDB7DEB79D
:103250005C018B01DB016D917C916115710521F49D
:10326000B8010E944F163EC0CE0101960E947F1702
:10327000F801E480F580CC24DD240EC0D801ED9166
:10328000FC91EC0DFD1D808190E00E94D61B892BE6
:1032900031F00894C11CD11CCE14DF0478F3ED800A
:1032A000FE800BC0D801ED91FC91EE0DFF1D8081D9
:1032B00090E00E94D61B892B31F00894E108F108B8
:1032C000CE14DF0478F30894E11CF11CC5018E01D3
:1032D0000F5F1F4FB801A60197010E946518C80132
:1032E0000E94ED13C50126960FB6F894DEBF0FBEFF
:1032F000CDBFCF91DF911F910F91FF90EF90DF90A5
:10330000CF90BF90AF9008952F923F924F925F92CF
:103310006F927F928F929F92AF92BF92CF92DF92E5
:10332000EF92FF920F931F93DF93CF93CDB7DEB74A
:1033300068970FB6F894DEBF0FBECDBF3C01FB010E
:103340002A011901608171816115710521F4BF01A4
:103350000E944F165AC07E010894E11CF11CC7015F
:103360000E947F178E01095F1F4FC80169E072E05C
:103370000E947F17D02EC12E3DE0832E912C8C0E03
:103380009D1E23E1A22EB12CAC0EBD1E24C0C40193
:10339000B70140E050E098010E9465188D2D9C2DEA
:1033A000B4010E946815C4010E94ED138D2D9C2D5F
:1033B000B1010E946815F20144815581400F511FEF
:1033C000C501B7010E949C18C701B5010E94B7153D
:1033D000C5010E94ED13C701B2010E9489148C013E
:1033E000FFEF8F3F9F0799F68D2D9C2DB7010E940F
:1033F0006815C3016D2D7C2D0E944F168D2D9C2DBF
:103400000E94ED13C7010E94ED13C30168960FB629
:10341000F894DEBF0FBECDBFCF91DF911F910F910A
:10342000FF90EF90DF90CF90BF90AF909F908F90E4
:103430007F906F905F904F903F902F900895EF9204
:10344000FF920F931F93DF93CF9300D000D0CDB79F
:10345000DEB77C01FB01142F022F608171816115A1
:10346000710521F4BF010E944F1619C0CE010196CB
:103470000E947F1789819A8101C00083612F70E0CB
:103480000E94800CFC010097C1F7C7018E010F5FFD
:103490001F4FB8010E944F16C8010E94ED13C701CB
:1034A00026960FB6F894DEBF0FBECDBFCF91DF9149
:1034B0001F910F91FF90EF9008950F931F93CF935B
:1034C000DF938C01EB016115710511F4C9E0D2E0C5
:1034D000FE0101900020E9F73197EC1BFD0BD801AC
:1034E0001596FC93EE931497C801BF010E94A31593
:1034F000F80180819181009719F0BE010E94940C1F
:10350000DF91CF911F910F910895EF92FF920F934A
:103510001F93DF93CF93CDB7DEB7A1970FB6F89483
:10352000DEBF0FBECDBF8C01CB01BA017E01089476
:10353000E11CF11CA7010E94FE0CF7010190002084
:10354000E9F73197EE19FF09D8011596FC93EE9330
:103550001497C801BF010E94A315F80180819181D1
:10356000009719F0B7010E94940CA1960FB6F89439
:10357000DEBF0FBECDBFCF91DF911F910F91FF90A6
:10358000EF900895EF92FF920F931F93DF93CF93E5
:10359000CDB7DEB7A1970FB6F894DEBF0FBECDBF93
:1035A0008C01CB01BA017E010894E11CF11CA7013A
:1035B0000E94FE0CF70101900020E9F73197EE1907
:1035C000FF09D8011596FC93EE931497C801BF012B
:1035D0000E94A315F80180819181009719F0B7012D
:1035E0000E94940CA1960FB6F894DEBF0FBECDBF1B
:1035F000CF91DF911F910F91FF90EF900895EF927F
:10360000FF920F931F93DF93CF93CDB7DEB7A197B0
:103610000FB6F894DEBF0FBECDBF8C01CB017E018B
:103620000894E11CF11CB7010E94DD0CF701019028
:103630000020E9F73197EE19FF09D8011596FC93A0
:10364000EE931497C801BF010E94A315F801808171
:103650009181009719F0B7010E94940CA1960FB6C2
:10366000F894DEBF0FBECDBFCF91DF911F910F91B8
:10367000FF90EF900895EF92FF920F931F93DF93C7
:10368000CF93CDB7DEB7A1970FB6F894DEBF0FBECC
:10369000CDBF8C01CB017E010894E11CF11CB70168
:1036A0000E94DD0CF70101900020E9F73197EE1937
:1036B000FF09D8011596FC93EE931497C801BF013A
:1036C0000E94A315F80180819181009719F0B7013C
:1036D0000E94940CA1960FB6F894DEBF0FBECDBF2A
:1036E000CF91DF911F910F91FF90EF900895A1E28C
:1036F0001A2EAA1BBB1BFD010DC0AA1FBB1FEE1F6C
:10370000FF1FA217B307E407F50720F0A21BB30BB6
:10371000E40BF50B661F771F881F991F1A9469F732
:1037200060957095809590959B01AC01BD01CF018E
:1037300008952F923F924F925F926F927F928F9255
:103740009F92AF92BF92CF92DF92EF92FF920F9330
:103750001F93CF93DF93CDB7DEB7CA1BDB0B0FB63A
:10376000F894DEBF0FBECDBF19942A8839884888E7
:103770005F846E847D848C849B84AA84B984C8848D
:10378000DF80EE80FD800C811B81AA81B981CE0F84
:10379000D11D0FB6F894DEBF0FBECDBFED01089569
:1037A000EE0FFF1F0590F491E02D1994911116C0B2
:1037B000803219F089508550D0F7089591110895FD
:1037C00081548A5108F4805E855A089591110895B4
:1037D00081568A5108F48052855808959927882780
:1037E0000895AA1BBB1B51E107C0AA1FBB1FA61748
:1037F000B70710F0A61BB70B881F991F5A95A9F79A
:0E38000080959095BC01CD010895F894FFCFFE
:10380E0052656164792E002E000000000000000059
:10381E000000000102020303030304040404040471
:10382E00040405050505050505050505050505053C
:10383E00050506060606060606060606060606061C
:10384E00060606060606060606060606060606060A
:10385E0006060707070707070707070707070707EC
:10386E0007070707070707070707070707070707DA
:10387E0007070707070707070707070707070707CA
:10388E0007070707070707070707070707070707BA
:10389E00070708080808080808080808080808089C
:1038AE00080808080808080808080808080808088A
:1038BE00080808080808080808080808080808087A
:1038CE00080808080808080808080808080808086A
:1038DE00080808080808080808080808080808085A
:1038EE00080808080808080808080808080808084A
:1038FE00080808080808080808080808080808083A
:10390E000808080808080808080808080808080829
:10391E0008082000B005000000000000B70F9A1044
:10392E00B2105C0F870F6D0FAB0F0000000032015D
:10393E009A10B21032013201320132010000000041
:06394E0032019A10B210D4
:00000001FF
