:100000000C9403010C9430010C9430010C943001D9
:100010000C9430010C9430010C9430010C9430019C
:100020000C9430010C9430010C9430010C9430018C
:100030000C9430010C9430010C9430010C9430017C
:100040000C9430010C9430010C9430010C9430016C
:100050000C9430010C9430010C9430010C942D045C
:100060000C9430010C94A0060C9430010C943001D7
:100070000C9430010C9430010C9430010C9430013C
:100080000C9430010C9430010C9430010C9430012C
:100090000C94D5060C9430010C9430010C94300172
:1000A0000C9430010C9430010C9430010C9430010C
:1000B0000C9430010C9430010C9430010C943001FC
:1000C0000C9430010C9430010C9430010C940A070C
:1000D0000C9430010C9430010C943F070C943001C7
:1000E0000C94300100002100240027002A002D007C
:1000F0003000330001010000040107010A01000083
:100100002200250028002B002E00310034000201BF
:100110000000050108010B0100002000230026005B
:1001200029002C002F00320000010000030106010D
:10013000090105050505070508080808020202026D
:100140000A0A080804040404010101010101010173
:100150000303030303030303040707070C0C0C0C3E
:100160000C0C0C0C02020202060606060606060627
:100170000B0B0B0B0B0B0B0B0102102020080810B4
:100180002040102040800201020108040201010207
:1001900004081020408080402010080402018004E0
:1001A000020180402010080402010804020101023B
:1001B0000408102040800102040810204080000044
:1001C000090A02080B0C0D070603040100000000D9
:1001D000000000000000000000000000000000001F
:1001E00000000000000000000000100F0E000000E2
:1001F00000000000000000000000000000000000FF
:10020000000000003B0811241FBECFEFD1E2DEBF8B
:10021000CDBF00E00CBF12E0A0E0B2E0EEE3FFE1F2
:1002200000E00BBF02C007900D92AC38B107D9F7C0
:100230001BBE1DE0ACE8B2E001C01D92AE35B107B7
:10024000E1F712E0C6E0D2E004C02297FE010E946E
:10025000990FC430D107C9F70E945D030C949D0F1C
:100260000C94000081E090E002C0880F991F6A950D
:10027000E2F70895FC0121E030E002C0220F331FB5
:100280006A95E2F740E030E0808190E0822393239A
:100290008217930709F441E0842F08950895DB0144
:1002A0002D913C911197FC01E20FF31F80812F5F8C
:1002B0003F4F2D933C930895DB014D915C91119735
:1002C000FC01E40FF51F8181308120E0280F311DF2
:1002D0004E5F5F4F4D935C93C9010895DB014D91D3
:1002E0005C911197FC01E40FF51F8381328120E0BE
:1002F000280F311D4C5F5F4F4D935C93C9010895EA
:10030000FB0120813181FC01E20FF31F968180E027
:100310004781840F911D285F3F4FFB01318320836C
:10032000BC0180E090E00895FC01E40FF51F6083BC
:100330004F5F5F4FCA010895FC01E40FF51F708302
:1003400061834E5F5F4FCA010895CF92DF92EF92B3
:10035000FF920F931F93DF93CF930F920F92CDB71E
:10036000DEB76C017B011A821982CB018E010F5F0F
:100370001F4FB8010E945C01F60191838083C70181
:10038000B8010E944F01F6018283C701B8010E94A3
:100390004F01F6018383C701B8010E945C01F60199
:1003A00095838483C701B8010E944F01F6018683BB
:1003B000C701B8010E944F01F601878389819A81A4
:1003C00080969A838983C701B8010E948001F60153
:1003D000608B718B828B938BC701B8010E946E0179
:1003E000F601958B848BC701B8010E946E01F6015E
:1003F000978B868BC701B8010E946E01F601918F21
:10040000808FC701B8010E946E01F601938F828F21
:100410000F900F90CF91DF911F910F91FF90EF9070
:10042000DF90CF9008950F931F93CF93DF93EC014C
:100430008091E10A9091E20A6AE070E00E944E0F1A
:10044000892BC1F58DEF9CE060E072E00E944209CB
:100450006C897D898DEF9CE04AE050E00E94F109B3
:100460008DEF9CE06BE072E00E94420969AD7AADCD
:100470008DEF9CE04AE050E00E94F1098DEF9CE096
:1004800066E172E00E9442096E898DEF9CE070E0A7
:100490004AE050E00E94380A8DEF9CE06DE172E086
:1004A0000E944209688D798D8DEF9CE04AE050E012
:1004B0000E946D0A8091E10A9091E20A0196909360
:1004C000E20A8093E10A29AD3AAD8C899D898217B1
:1004D000930740F4CE0146960E94A003882311F4AE
:1004E0001A8A1AC0CE0146960E94A00391E098276E
:1004F0009A8B8E01015B1B4FCE01C896B8010E94FA
:10050000BA0389E49DE0B80140E054E02BED3AE005
:100510000EE714E00E944C0BDF91CF911F910F91D9
:100520000895EF92FF920F931F93CF93DF93EC0107
:1005300089E49DE00E94880A8C010850104084E004
:100540000030180759F58FE4E82EF12CEC0EFD1E53
:1005500089E49DE0B70140E054E02BED3AE00FED77
:100560001AE00E942E0BCE014496B7010E94A5010D
:100570008C899D8901969AAF89AF8E8988AFCE010B
:1005800046960E949103882311F081E08B8BCE0167
:10059000C8966B890E94680381E011C0101611068D
:1005A0006CF48DEF9CE064E272E00E9442098DEFF2
:1005B0009CE0B8014AE050E00E946D0A80E0DF91C3
:1005C000CF911F910F91FF90EF900895EF92FF92BE
:1005D0000F931F93DF93CF9300D00F92CDB7DEB769
:1005E0007B0180916E028983CB0164E670E00E94FA
:1005F0004E0F6A83C70164E670E00E944E0F8B8342
:1006000080916F028C838CEE9AE068E672E0AE0116
:100610004F5F5F4F24E732E000E712E00E946C0674
:1006200089E49DE064E774E00E94550BF092CE02ED
:10063000E092CD028DEF9CE060E372E00E94620ADE
:100640000F900F900F900F90CF91DF911F910F910E
:10065000FF90EF9008958CE892E00E949102882329
:1006600031F00E9425048CE892E00E9413020E945F
:10067000240408950F931F930E940C050DEF1CE0B6
:10068000C80140E855E260E070E00E9474078DE028
:1006900061E00E946E0560917802709179028CE8A9
:1006A00092E00E94E6020E942604C8016DE472E016
:1006B0000E94620A1F910F9108950E943A030E94BE
:1006C0002B03FDCF462F67E070E00E944E01089596
:1006D000462F66E070E00E944E010895462F65E0C7
:1006E00070E00E944E010895462F64E070E00E9481
:1006F0004E010895462F62E070E00E944E01089579
:10070000462F61E070E00E944E010895462F60E0A0
:1007100070E00E944E01089567E070E00E943A0187
:10072000089566E070E00E943A01089565E070E087
:100730000E943A01089564E070E00E943A01089531
:1007400062E070E00E943A01089561E070E00E946A
:100750003A01089560E070E00E943A010895DC01DA
:10076000FB018081918112969C938E9311978281D7
:100770008C930895CF92DF92EF92FF920F931F9385
:10078000CF93DF936C017B01CB01F601608140E0E8
:1007900050E00E949401AC01C701F60163850E94FC
:1007A0009401AC01C701F60164850E949401AC017B
:1007B000C701F60165850E949401AC01C0E0D0E05C
:1007C000C70160E00E949401AC012196C430D105BC
:1007D000B9F7F60161857285C7010E949C01AC01E1
:1007E000C8E6D2E0C70169910E949401AC01F2E031
:1007F000CE36DF07B9F78601C0E0D0E0C701F801C7
:1008000066850E949401AC0121960F5F1F4FC8308E
:10081000D105A1F7C0E0D0E0C70160E00E949401DB
:10082000AC012196C630D105B9F7F601618172811C
:10083000C7010E949C01DF91CF911F910F91FF9002
:10084000EF90DF90CF900895089508958DEF9CE08C
:1008500064E572E00E94620A08951F920F920FB63B
:100860000F9211242F933F938F939F93AF93BF9336
:100870008091E70A9091E80AA091E90AB091EA0A0A
:100880003091EB0A0196A11DB11D232F2D5F2D374D
:1008900020F02D570196A11DB11D2093EB0A8093E6
:1008A000E70A9093E80AA093E90AB093EA0A8091D4
:1008B000E30A9091E40AA091E50AB091E60A019654
:1008C000A11DB11D8093E30A9093E40AA093E50A69
:1008D000B093E60ABF91AF919F918F913F912F9175
:1008E0000F900FBE0F901F9018958FB7F89420911E
:1008F000E70A3091E80A4091E90A5091EA0A8FBF6D
:10090000B901CA0108959FB7F8942091E30A309184
:10091000E40A4091E50A5091E60A86B5A89B06C014
:100920008F3F21F02F5F3F4F4F4F5F4F9FBF542F9F
:10093000432F322F2227280F311D411D511D82E0E8
:10094000220F331F441F551F8A95D1F7B901CA01E1
:1009500008959B01AC017FB7F8948091E30A9091D0
:10096000E40AA091E50AB091E60A66B5A89B05C025
:100970006F3F19F00196A11DB11D7FBFBA2FA92F9E
:10098000982F8827860F911DA11DB11D62E0880F49
:10099000991FAA1FBB1F6A95D1F7BC012DC0FFB7D5
:1009A000F8948091E30A9091E40AA091E50AB0914D
:1009B000E60AE6B5A89B05C0EF3F19F00196A11D18
:1009C000B11DFFBFBA2FA92F982F88278E0F911D19
:1009D000A11DB11DE2E0880F991FAA1FBB1FEA9558
:1009E000D1F7861B970B885E9340C8F221503040A8
:1009F0004040504068517C4F21153105410551055B
:100A000071F60895019739F0880F991F880F991F83
:100A100002970197F1F70895789484B5826084BDB8
:100A200084B5816084BD85B5826085BD85B58160F2
:100A300085BDEEE6F0E0808181608083E1E8F0E052
:100A40001082808182608083808181608083E0E881
:100A5000F0E0808181608083E1EBF0E08081846060
:100A60008083E0EBF0E0808181608083E1E9F0E069
:100A7000808182608083808181608083E0E9F0E012
:100A8000808181608083E1EAF0E080818260808300
:100A9000808181608083E0EAF0E0808181608083F2
:100AA000E1E2F1E0808182608083808181608083E7
:100AB000E0E2F1E0808181608083EAE7F0E080811C
:100AC0008460808380818260808380818160808374
:100AD0008081806880831092C1000895482F50E083
:100AE000CA0188589E4FFC0124914E5C5E4FFA016A
:100AF00084918823C1F0E82FF0E0EE0FFF1FEC5146
:100B0000FF4FA591B491662341F49FB7F8948C915F
:100B1000209582238C939FBF08959FB7F8948C9162
:100B2000822B8C939FBF0895893009F448C08A3086
:100B3000A0F4843049F1853040F4823071F1833083
:100B4000F8F4813009F062C025C0873071F1883037
:100B500090F5863009F05AC024C08D3009F441C0A8
:100B60008E3028F48B30A9F18C30B8F52CC08F3042
:100B700009F441C08F30D8F1803109F047C041C03D
:100B8000809180008F7703C0809180008F7D80935B
:100B90008000089584B58F7702C084B58F7D84BDB1
:100BA00008958091B0008F7703C08091B0008F7D51
:100BB0008093B0000895809190008F7707C0809156
:100BC00090008F7D03C080919000877F809390007C
:100BD00008958091A0008F7707C08091A0008F7D3D
:100BE00003C08091A000877F8093A000089580912A
:100BF00020018F7703C0809120018F7D8093200199
:100C0000089580912001877F809320010895FF92AD
:100C10000F931F93F62E482F50E0CA0182549E4F27
:100C2000FC012491CA0188589E4FFC0114914E5C2E
:100C30005E4FFA0104910023D9F0222319F0822F8C
:100C40000E949405E02FF0E0EE0FFF1FE250FF4FEF
:100C5000A591B491FF2031F49FB7F8948C91109531
:100C6000812304C09FB7F8948C91812B8C939FBFF4
:100C70001F910F91FF9008950F931F93482F50E0FD
:100C8000CA0182549E4FFC012491CA0188589E4F8C
:100C9000FC0104914E5C5E4FFA011491112319F48A
:100CA00020E030E015C0222319F0822F0E94940525
:100CB000812F90E0880F991F885E9E4FFC01A591BF
:100CC000B4918C9120E030E0802311F021E030E0FD
:100CD000C9011F910F910895AF92BF92CF92DF92F9
:100CE000EF92FF920F931F937B016A0159018EE4EB
:100CF0009DE00E94FD0E89E090E0B70146E050E0E3
:100D00000E945E0D8FE090E0B60144E050E00E944A
:100D10005E0D81E090E0B50144E050E00E945E0D80
:100D200085E090E0B80144E050E00E945E0D1F9124
:100D30000F91FF90EF90DF90CF90BF90AF9008950C
:100D40001F920F920FB60F920BB60F9211242F9392
:100D50003F934F938F939F93EF93FF934091C600E0
:100D6000E0916D0BF0916E0B31969F012F773070F3
:100D7000319780916F0B9091700B2817390739F0DC
:100D8000E351F54F408330936E0B20936D0BFF9131
:100D9000EF919F918F914F913F912F910F900BBEAB
:100DA0000F900FBE0F901F9018951F920F920FB6C5
:100DB0000F920BB60F9211242F933F934F938F9363
:100DC0009F93EF93FF934091CE00E091F10BF09150
:100DD000F20B31969F012F77307031978091F30B92
:100DE0009091F40B2817390739F0EF58F44F4083EE
:100DF0003093F20B2093F10BFF91EF919F918F9124
:100E00004F913F912F910F900BBE0F900FBE0F90FF
:100E10001F9018951F920F920FB60F920BB60F925C
:100E200011242F933F934F938F939F93EF93FF93AF
:100E30004091D600E091750CF091760C31969F01AF
:100E40002F77307031978091770C9091780C28171C
:100E5000390739F0EB50F44F40833093760C2093F0
:100E6000750CFF91EF919F918F914F913F912F9131
:100E70000F900BBE0F900FBE0F901F9018951F92F2
:100E80000F920FB60F920BB60F9211242F933F9330
:100E90004F938F939F93EF93FF9340913601E0918F
:100EA000F90CF091FA0C31969F012F773070319741
:100EB0008091FB0C9091FC0C2817390739F0E7580A
:100EC000F34F40833093FA0C2093F90CFF91EF918C
:100ED0009F918F914F913F912F910F900BBE0F904B
:100EE0000FBE0F901F901895CF93DF93EC019A01DE
:100EF000AB01E885F985203081EE380780E04807AE
:100F000080E0580709F445C081E090E00A8802C0FB
:100F1000880F991F0A94E2F7808360E079E08DE3FF
:100F200090E00E94610F2150304040405040569563
:100F3000479537952795EC81FD813083EE81FF81C0
:100F40002083EA85FB85208141E050E0CA010E84C0
:100F500002C0880F991F0A94E2F7282B2083EA85A4
:100F6000FB852081CA010F8402C0880F991F0A9453
:100F7000E2F7282B2083EA85FB858081088802C060
:100F8000440F551F0A94E2F7842B8083DF91CF91A1
:100F90000895108220E130E0CECFDC011296ED9171
:100FA000FC911397E058FF4F2191319180819181FD
:100FB000281B390B2F773070C9010895DC01129678
:100FC000ED91FC911397EE57FF4F20813181929163
:100FD0008291E058F0408217930719F42FEF3FEF0A
:100FE00005C0E20FF31F8081282F30E0C90108956A
:100FF000DC011296ED91FC911397DF01AE57BF4FC4
:101000002D913C911197E058FF4F80819181E058DC
:10101000F0408217930719F42FEF3FEF0BC0E20F58
:10102000F31F80812F5F3F4F2F7730702D933C93BC
:10103000282F30E0C9010895DC011296ED91FC9152
:101040001397EE57FF4F8081918192938293089579
:10105000FC01A085B18521898C9190E0022E02C00F
:10106000959587950A94E2F780FFF6CF0484F5857D
:10107000E02D608308952EE732E03093FE0C20933C
:10108000FD0C8DEE9AE09093000D8093FF0C85ECA3
:1010900090E09093020D8093010D84EC90E090938A
:1010A000040D8093030D80EC90E09093060D8093E7
:1010B000050D81EC90E09093080D8093070D86EC70
:1010C00090E090930A0D8093090DE4E0E0930B0DFE
:1010D00073E070930C0D67E060930D0D55E0509335
:1010E0000E0D41E040930F0D3093110D2093100D24
:1010F00081E79BE09093130D8093120D8DEC90E0AF
:101100009093150D8093140D8CEC90E09093170D37
:101110008093160D88EC90E09093190D8093180D34
:1011200089EC90E090931B0D80931A0D8EEC90E06B
:1011300090931D0D80931C0DE0931E0D70931F0D59
:101140006093200D5093210D4093220D3093240D78
:101150002093230D85EF9BE09093260D8093250D22
:1011600085ED90E09093280D8093270D84ED90E01D
:1011700090932A0D8093290D80ED90E090932C0D93
:1011800080932B0D81ED90E090932E0D80932D0D8B
:1011900086ED90E09093300D80932F0DE093310D0C
:1011A0007093320D6093330D5093340D4093350D91
:1011B0003093370D2093360D89E79CE09093390DDD
:1011C0008093380D85E391E090933B0D80933A0D29
:1011D00084E391E090933D0D80933C0D80E391E09A
:1011E00090933F0D80933E0D81E391E09093410DEC
:1011F0008093400D86E391E09093430D8093420DE0
:10120000E093440D7093450D6093460D5093470D48
:101210004093480D08950F931F93CF93DF938C0154
:10122000EB0109C02196D801ED91FC910190F0816C
:10123000E02DC801199568816623A1F7DF91CF9150
:101240001F910F910895EF92FF920F931F93CF93E9
:10125000DF938C017B01EA010CC0D7016D917D0108
:10126000D801ED91FC910190F081E02DC801199514
:101270002197209791F7DF91CF911F910F91FF90C8
:10128000EF900895DC01ED91FC910280F381E02D57
:10129000199508952F923F924F925F926F927F928D
:1012A0008F929F92AF92BF92CF92DF92EF92FF9276
:1012B0000F931F93DF93CF93CDB7DEB7A0970FB6F1
:1012C000F894DEBF0FBECDBF1C016A017B01411542
:1012D00051056105710549F440E350E060E070E0BC
:1012E00020E030E00E94020A54C08824992454016E
:1012F000422E55246624772401E010E00C0F1D1FB8
:10130000080D191DC701B601A30192010E94610FCA
:10131000F80160830894811C911CA11CB11CC701B9
:10132000B601A30192010E94610FC901DA016C01AB
:101330007D01C114D104E104F104F1F681E0E82E4D
:10134000F12CEC0EFD1EE80CF91C3E010894611C0A
:10135000711CD501C4010197A109B1096C01C8181C
:10136000D90814C0F601EE0DFF1D40814A3010F47B
:10137000405D01C0495C50E060E070E0C10120E0E8
:1013800030E00E94020A0894E108F1086E147F041C
:1013900049F7A0960FB6F894DEBF0FBECDBFCF9130
:1013A000DF911F910F91FF90EF90DF90CF90BF9052
:1013B000AF909F908F907F906F905F904F903F90F5
:1013C0002F900895DC012115310541F4ED91FC9138
:1013D0000190F081E02D642F199508950E944A092B
:1013E0000895EF92FF920F931F939A017B0100E003
:1013F00010E0B801A7010E94E2091F910F91FF9030
:10140000EF900895EF92FF920F931F93CF93DF9386
:10141000EC017A018B012115310541F4E881F98154
:101420000190F081E02D642F19951BC02A30310501
:10143000B1F477FF10C04DE250E060E070E020E0D2
:1014400030E00E94020A10950095F094E094E11CAF
:10145000F11C011D111DCE01B801A7012AE00E9457
:101460004A09DF91CF911F910F91FF90EF9008955E
:10147000EF92FF920F931F937B019A010027F7FCD5
:101480000095102FB801A7010E94020A1F910F9129
:10149000FF90EF9008950F931F938C014DE050E063
:1014A00060E070E020E030E00E94020AC8014AE0FB
:1014B00050E060E070E020E030E00E94020A1F91FE
:1014C0000F9108950F931F938C010E944209C80148
:1014D0000E944B0A1F910F910895CF92DF92EF92D5
:1014E000FF920F931F938C016B019A01EE24D7FC9E
:1014F000E094FE2CB701A6010E94020AC8010E94D6
:101500004B0A1F910F91FF90EF90DF90CF900895BD
:10151000FC018EE49DE060810E94230E08952F92CD
:101520003F924F925F926F927F928F929F92AF9273
:10153000BF92CF92DF92EF92FF920F931F93DF93B0
:10154000CF93CDB7DEB728970FB6F894DEBF0FBEA6
:10155000CDBF5C011B01742E652E790128010E940C
:10156000880A28EF822E2FEF922E880E991E97FE62
:1015700003C020E030E058C0C72CD62CC814D904D2
:101580000CF049C0F50180818E010F5F1F4FB8013B
:1015900048E050E00E94220D8981F70180838A8112
:1015A00081838B8182838C8183839D8180E02E81E6
:1015B000820F911DF20191838083EE24FF24702E0F
:1015C000012F10C0F5018081672D702F41E050E0A0
:1015D0000E94220DF101EE0DFF1D89818083089488
:1015E000E11CF11CEC14FD046CF308C0F5018081D2
:1015F000B80141E050E00E94220D03C08E010F5F50
:101600001F4FC5010E94880A892B81F722273327A3
:101610002819390909C0F5018081B101472D562DDE
:1016200097010E94F30B9C01C90128960FB6F8940C
:10163000DEBF0FBECDBFCF91DF911F910F91FF9005
:10164000EF90DF90CF90BF90AF909F908F907F9062
:101650006F905F904F903F902F900895EF92FF9280
:101660000F931F93DF93CF930F920F92CDB7DEB7F7
:1016700078018E010F5F1F4F0E948F0A29813A81E6
:10168000F701318320830F900F90CF91DF911F914D
:101690000F91FF90EF9008950F931F93FC018081AD
:1016A0000E94B70C1F910F910895FC01AB0172834A
:1016B0006183108280E062E020E00E94BB0B08950D
:1016C0000F931F93182F8EE49DE0612F40E10E943D
:1016D000EB0E00E0C8018E5F9B4F6FEF0E94440D40
:1016E0001F910F910895FF920F931F93F62E672F6E
:1016F000082F10E00C5F1F4F102F0027C80188969D
:101700000E94440DC80189966F2D0E94440D1F91BF
:101710000F91FF900895FF920F931F93F62E672F5E
:10172000082F10E00C5F1F4F102F0027C8014096B4
:101730000E94440DC80141966F2D0E94440D1F91D7
:101740000F91FF900895FF920F931F93F62E672F2E
:10175000082F10E00C5F1F4F102F0027C8010496C0
:101760000E94440DC80105966F2D0E94440D1F91E3
:101770000F91FF900895FF920F931F93CF93DF93E4
:10178000082FF62EEA01122F862F8150853010F097
:1017900080E023C0802F0E94600B1F2980E0902FE3
:1017A0009C5F612F0E94440D209719F0802FBE018D
:1017B0000BC060914C0D70914D0D6F5F7F4F70931A
:1017C0004D0D60934C0D802F0E94A30B8EE49DE085
:1017D000602F41E00E94EB0E81E0DF91CF911F91DD
:1017E0000F91FF9008956F927F928F929F92BF9278
:1017F000CF92DF92EF92FF920F931F93DF93CF93DD
:10180000CDB7DEB728970FB6F894DEBF0FBECDBFB9
:10181000B82E4B0169013801452B19F4CC24DD2485
:1018200091C0082F10E00C5F1F4F102F0027C80138
:1018300088960E94850DF82EC80189960E94850D14
:101840003F2D20E07901E80EF11CC8010E94850DB2
:1018500090E0877090708330910559F18430910544
:1018600009F444C0029719F0CC24DD2465C08EE44D
:101870009DE06B2DA7019E012F5F3F4F08E010E018
:101880000E94660EE00EF11E8981F60180838A8136
:1018900081838B8182838C8183839D8180E02E81F3
:1018A000820F911DF301918380839F8180E02885C1
:1018B00019C08EE49DE06B2DA7019E012F5F3F4F65
:1018C00006E010E00E94660EE00EF11E8981F6012E
:1018D00080838A8181838B8182838C8183839D81B4
:1018E00080E02E816C01C20ED11C18C08EE49DE0F8
:1018F0006B2DA7019E012F5F3F4F02E010E00E9479
:10190000660EE00EF11E998180E02A81C22EDD2450
:101910002EEF3FEFC20ED31EC80ED91E8EE49DE0FF
:101920006B2DA701940186010E94660EEC0CFD1C34
:101930008B2DB7010E94730B8EE49DE06B2D40E46C
:101940000E94EB0EC60128960FB6F894DEBF0FBEBC
:10195000CDBFCF91DF911F910F91FF90EF90DF905E
:10196000CF90BF909F908F907F906F900895AF928F
:10197000BF92CF92DF92FF920F931F93CF93DF938B
:10198000F82E5B01F90168018081882351F481817F
:10199000882339F48281882321F48381882309F400
:1019A00044C0C114D10409F440C0EA0188E04130C8
:1019B000580718F0C0E0D8E003C041155105B9F14F
:1019C0000F2D10E00C5F1F4F102F0027C8010C9641
:1019D000BF0144E050E00E945E0D8F2DB6010E94D1
:1019E0008B0B8EE49DE06F2DA5019E010E94A70D3B
:1019F0008EE49DE06F2D40E20E94EB0E0E5F1F4FC4
:101A00000AC0C8010E94850D83FF05C0C80168E1B6
:101A10000E94440D0AC0C8010E94850D84FFF1CFC9
:101A2000C80160E10E94440D02C0C0E0D0E0CE01D8
:101A3000DF91CF911F910F91FF90DF90CF90BF90DA
:101A4000AF9008950F931F93CF93DF93182F9B01AF
:101A5000EA014115510519F420E030E00FC08EE491
:101A60009DE0612FA9019E0100E00E94A10E8EE47D
:101A70009DE0612F40E40E94EB0E9E01C901DF91C1
:101A8000CF911F910F910895282F2C9880EF8EBD34
:101A90000DB407FEFDCF8EB59EBD0DB407FEFDCF84
:101AA0008EB52EBD0DB407FEFDCF8EB56EBD0DB447
:101AB00007FEFDCF8EB52C9A81E00895DC0120E071
:101AC00030E090EF1DC02C989EBD0DB407FEFDCFF9
:101AD0008EB5BEBD0DB407FEFDCF8EB5AEBD0DB447
:101AE00007FEFDCF8EB5FB01E20FF31F80818EBD97
:101AF0000DB407FEFDCF11968EB52C9A2F5F3F4F88
:101B00002417350700F3CA010895282F2C988FE079
:101B10008EBD0DB407FEFDCF8EB59EBD0DB407FE84
:101B2000FDCF8EB52EBD0DB407FEFDCF8EB51EBC0C
:101B30000DB407FEFDCF8EB52C9A089590E0049663
:101B4000982F8827860F971F0E94850D08958F92E2
:101B50009F92BF92CF92DF92EF92FF920F931F93CB
:101B6000CF93DF93EC01B62E6A017901862F64E2F0
:101B700070E00E949E0D182F8B2D65E270E00E9490
:101B80009E0D312F20E04901880E911CA401577051
:101B90008B2D90E0880F991FC80FD91F288139819C
:101BA000240F351FCA018E0D9F1D8150984090F063
:101BB00000E018E0041B150BC901B601A8010E9442
:101BC0005E0DA701401B510B888199810C0D1D1DD5
:101BD000B80103C0C901B601A7010E945E0DE80C5F
:101BE000F91C0B2D10E00C5F1F4F102F0027C801B0
:101BF00084966F2D0E94440DC80185966E2D0E941B
:101C0000440DDF91CF911F910F91FF90EF90DF90E6
:101C1000CF90BF909F908F900895FF920F931F9346
:101C2000F82E66E270E00E949E0D182F00E08F2DC6
:101C300067E270E00E949E0D080F111DC8011F9100
:101C40000F91FF900895FF920F931F93CF93DF930F
:101C5000F62EC0E0D0E08F2D0E940D0E8C01009773
:101C600021F08F2D0E940D0EEC01C017D10799F7BE
:101C7000CE01DF91CF911F910F91FF900895DC016C
:101C800020E030E09FE01DC02C989EBD0DB407FE03
:101C9000FDCF8EB5BEBD0DB407FEFDCF8EB5AEBD7A
:101CA0000DB407FEFDCF8EB51EBC0DB407FEFDCFF3
:101CB00011968EB5FB01E20FF31F80832C9A2F5FE4
:101CC0003F4F2417350700F3CA010895CF92DF92E2
:101CD000EF92FF920F931F93CF93DF9369017801E7
:101CE0005770C62FD0E02496CC0FDD1FC80FD91F28
:101CF00028813981240F351FC801840F951F815019
:101D0000984088F000E018E0041B150BC901B601EB
:101D1000A8010E943F0EE01AF10A888199810C0DFA
:101D20001D1DB80102C0C901B601A7010E943F0EE6
:101D3000DF91CF911F910F91FF90EF90DF90CF90A7
:101D400008958F929F92AF92BF92CF92DF92EF92BF
:101D5000FF920F931F93CF93DF937C01A62E6A010E
:101D60004901B02E862F68E270E00E949E0D182F68
:101D70008A2D69E270E00E949E0D312F20E0E9017A
:101D8000C80FD11DC7016A2DAE01960184010E94C2
:101D9000660EBB2099F47E01E80CF91C0A2D10E0B8
:101DA0000C5F1F4F102F0027C80188966F2D0E94CF
:101DB000440DC80189966E2D0E94440DDF91CF918C
:101DC0001F910F91FF90EF90DF90CF90BF90AF9059
:101DD0009F908F9008951F93162F962F80E08F5F0E
:101DE0009B4F642F0E94440D812F61E070E00E94A0
:101DF0009E0D8823C9F71F9108950F931F93182FE5
:101E0000092F6CE271E080E090E00E94A9040E943A
:101E10002F0F249A80E090E060E80E94440D8BE14F
:101E200090E065E50E94440D8AE190E065E50E943E
:101E3000440D212F302FC901FC0180E090E49183F3
:101E400080838050904E9187808780509841329651
:101E500020E68030920799F71F910F91089584E34F
:101E600061E00E946E0583E361E00E946E0585E3F8
:101E700061E00E946E0584E360E00E94070683E350
:101E800060E00E94070685E361E00E9407068CB5CA
:101E900080618CBD8CB580648CBD089597FB092E44
:101EA00007260AD077FD04D02ED006D000201AF4E1
:101EB000709561957F4F0895F6F7909581959F4FA6
:101EC0000895A1E21A2EAA1BBB1BFD010DC0AA1F7B
:101ED000BB1FEE1FFF1FA217B307E407F50720F093
:101EE000A21BB30BE40BF50B661F771F881F991F0E
:101EF0001A9469F760957095809590959B01AC0157
:101F0000BD01CF010895AA1BBB1B51E107C0AA1F49
:101F1000BB1FA617B70710F0A61BB70B881F991F8A
:101F20005A95A9F780959095BC01CD010895EE0FC3
:0E1F3000FF1F0590F491E02D1994F894FFCF57
:101F3E005061636B65742049443A00205265706CA1
:101F4E00792049443A00204D6F64653A002054656B
:101F5E00616D3A005061636B657453697A653A003E
:101F6E00436F6D6D756E69636174696F6E20696E16
:101F7E00697420636F6D706C6574652E00526561B7
:101F8E0064792E005573657220696E697420636FD3
:101F9E006D706C6574652E0090A2DA003098ACC638
:101FAE00FFFFFF00AC0000019C06000000002808A7
:0C1FBE000B092309CD07F807DE071C08FB
:00000001FF
