:100000000C9403010C9430010C9430010C943001D9
:100010000C9430010C9430010C9430010C9430019C
:100020000C9430010C9430010C9430010C9430018C
:100030000C9430010C9430010C9430010C9430017C
:100040000C9430010C9430010C9430010C9430016C
:100050000C9430010C9430010C9430010C949204F7
:100060000C9430010C9405070C9430010C94300171
:100070000C9430010C9430010C9430010C9430013C
:100080000C9430010C9430010C9430010C9430012C
:100090000C943A070C9430010C9430010C9430010C
:1000A0000C9430010C9430010C9430010C9430010C
:1000B0000C9430010C9430010C9430010C943001FC
:1000C0000C9430010C9430010C9430010C946F07A7
:1000D0000C9430010C9430010C94A4070C94300162
:1000E0000C94300100002100240027002A002D007C
:1000F0003000330001010000040107010A01000083
:100100002200250028002B002E00310034000201BF
:100110000000050108010B0100002000230026005B
:1001200029002C002F00320000010000030106010D
:10013000090105050505070508080808020202026D
:100140000A0A080804040404010101010101010173
:100150000303030303030303040707070C0C0C0C3E
:100160000C0C0C0C02020202060606060606060627
:100170000B0B0B0B0B0B0B0B0102102020080810B4
:100180002040102040800201020108040201010207
:1001900004081020408080402010080402018004E0
:1001A000020180402010080402010804020101023B
:1001B0000408102040800102040810204080000044
:1001C000090A02080B0C0D070603040100000000D9
:1001D000000000000000000000000000000000001F
:1001E00000000000000000000000100F0E000000E2
:1001F00000000000000000000000000000000000FF
:1002000000000000A00811241FBECFEFD1E2DEBF26
:10021000CDBF00E00CBF12E0A0E0B2E0EAE3F0E204
:1002200000E00BBF02C007900D92A83EB107D9F7BE
:100230001BBE16E0A8EEB2E001C01D92AA3BB107BA
:10024000E1F712E0C6E0D2E004C02297FE010E946E
:100250001710C430D107C9F70E94BF030C941B10BC
:100260000C94000081E090E002C0880F991F6A950D
:10027000E2F70895FC0121E030E002C0220F331FB5
:100280006A95E2F740E030E0808190E0822393239A
:100290008217930709F441E0842F0895FC0181E05F
:1002A00090E002C0880F991F6A95E2F7682F50818D
:1002B00070E0282F30E0852F90E08223932382176F
:1002C000930709F471E0741739F0442319F0650FAE
:1002D00060830895561B50830895DB012D913C9156
:1002E0001197FC01E20FF31F80812F5F3F4F2D9389
:1002F0003C930895DB014D915C911197FC01E40F53
:10030000F51F8181308120E0280F311D4E5F5F4F46
:100310004D935C93C9010895DB014D915C91119758
:10032000FC01E40FF51F8381328120E0280F311D8D
:100330004C5F5F4F4D935C93C9010895FB01208191
:100340003181FC01E20FF31F968180E04781840F29
:10035000911D285F3F4FFB0131832083BC0180E06A
:1003600090E00895FC01E40FF51F60834F5F5F4F3D
:10037000CA010895FC01E40FF51F708361834E5F8D
:100380005F4FCA010895CF92DF92EF92FF920F93D1
:100390001F93DF93CF930F920F92CDB7DEB76C010F
:1003A0007B011A821982CB018E010F5F1F4FB801AA
:1003B0000E947A01F60191838083C701B8010E94EF
:1003C0006D01F6018283C701B8010E946D01F6013B
:1003D0008383C701B8010E947A01F6019583848363
:1003E000C701B8010E946D01F6018683C701B801FB
:1003F0000E946D01F601878389819A8180969A8394
:100400008983C701B8010E949E01F601608B718B40
:10041000828B938BC701B8010E948C01F601958BEA
:10042000848BC701B8010E948C01F601978B868BE3
:10043000C701B8010E948C01F601918F808FC7011E
:10044000B8010E948C01F601938F828F0F900F905C
:10045000CF91DF911F910F91FF90EF90DF90CF90A0
:1004600008950F931F93CF93DF93EC0180913D0488
:1004700090913E04019690933E0480933D0429ADF3
:100480003AAD8C899D898217930720F5CE01469657
:100490000E9405048823F1F489E596E060E072E0AB
:1004A0000E94A7096C897D8989E596E04AE050E0C1
:1004B0000E94560A89E596E06AE272E00E94A70966
:1004C00069AD7AAD89E596E04AE050E00E94C70A3E
:1004D0001A8A1AC0CE0146960E94050491E0982718
:1004E0009A8B8E0109511F4FCE01C896B8010E9408
:1004F0001F0485EA96E0B80148E650E027E334E0BF
:100500000EE714E00E94CA0BDF91CF911F910F916B
:100510000895CF92DF92EF92FF920F931F93DF9394
:10052000CF93CDB7DEB7C050D8400FB6F894DEBF3A
:100530000FBECDBF6C0185EA96E00E94060B28EF46
:10054000E22E2FEFF22EE80EF91E88E9E816F104EC
:1005500009F03FC08FE4E82EF12CEC0CFD1C85EA7D
:1005600096E0B70148E950E027E334E00BE314E0FC
:100570000E94AC0BC6014496B7010E94C3018601DC
:100580000A5E1F4FC8010E94F403882369F0F60138
:100590008389882331F489E596E065E372E00E945F
:1005A000E00A81E0F601838BF6018389882341F01C
:1005B000C80161E00E94CA03C80160E00E94D10343
:1005C000F6018489958992AF81AF868980AF81E0F9
:1005D0001EC01E141F04D4F485EA96E0BE016F5FAE
:1005E0007F4F40E058E027E334E00BE314E00E9443
:1005F000AC0B89E596E060E472E00E94A70989E50A
:1006000096E0B7014AE050E00E94EB0A80E0C0505B
:10061000D84F0FB6F894DEBF0FBECDBFCF91DF919C
:100620001F910F91FF90EF90DF90CF900895EF9280
:10063000FF920F931F93DF93CF9300D00F92CDB70C
:10064000DEB77B018091CC028983CB0164E670E048
:100650000E94CC0F6A83C70164E670E00E94CC0F51
:100660008B838091CD028C8388E494E066EC72E009
:10067000AE014F5F5F4F22ED32E00EEC12E00E94C0
:10068000D10685EA96E064E774E00E94D30BF0920D
:100690002A03E092290309E516E0C8016CE472E040
:1006A0000E94A709C80160E470E04AE050E00E949F
:1006B0009D0A3FE5E32E32E0F32EC801B7010E9408
:1006C000A709C80168E970E04AE050E00E94EB0A1F
:1006D000C8016CE772E00E94A709C80160E470E0FD
:1006E0004AE050E00E949D0AC801B7010E94A70994
:1006F000C80168E670E04AE050E00E94EB0AC801D9
:100700006EE872E00E94E00A0F900F900F900F9039
:10071000CF91DF911F910F91FF90EF90089588EE98
:1007200092E00E948902882331F00E948A0488EEB8
:1007300092E00E9431020E94890408950F931F9352
:100740000E94710509E516E0C80140E855E260E045
:1007500070E00E94D9078DE061E00E94D30588EE29
:1007600092E06CE976E00E9417030E948B04C801B6
:100770006BEA72E00E94E00A1F910F9108950E94B7
:100780009E030E948F03FDCF462F67E070E00E941A
:100790004E01089541E0462766E070E00E944E0158
:1007A0000895462F65E070E00E944E010895462F9F
:1007B00064E070E00E944E010895462F62E070E010
:1007C0000E944E010895462F61E070E00E944E01A4
:1007D0000895462F60E070E00E944E01089567E0A2
:1007E00070E00E943A01089566E070E00E943A01CC
:1007F00091E08927089565E070E00E943A0108952C
:1008000064E070E00E943A01089562E070E00E94A6
:100810003A01089561E070E00E943A01089560E0B5
:1008200070E00E943A010895DC01FB018081918112
:1008300012969C938E93119782818C930895CF92F8
:10084000DF92EF92FF920F931F93CF93DF936C0190
:100850007B01CB01F601608140E050E00E94B201D3
:10086000AC01C701F60163850E94B201AC01C7016A
:10087000F60164850E94B201AC01C701F6016585ED
:100880000E94B201AC01C0E0D0E0C70160E00E946C
:10089000B201AC012196C430D105B9F7F6016185EA
:1008A0007285C7010E94BA01AC01C6ECD2E0C70153
:1008B00069910E94B201AC01F2E0CC3CDF07B9F7CC
:1008C0008601C0E0D0E0C701F80166850E94B20150
:1008D000AC0121960F5F1F4FC830D105A1F7C0E0D2
:1008E000D0E0C70160E00E94B201AC012196C630A1
:1008F000D105B9F7F60161817281C7010E94BA0181
:10090000DF91CF911F910F91FF90EF90DF90CF90EB
:1009100008950895089589E596E062EB72E00E94DB
:10092000E00A08951F920F920FB60F9211242F9391
:100930003F938F939F93AF93BF9380914304909184
:100940004404A0914504B0914604309147040196B7
:10095000A11DB11D232F2D5F2D3720F02D5701969E
:10096000A11DB11D20934704809343049093440438
:10097000A0934504B093460480913F0490914004B5
:10098000A0914104B09142040196A11DB11D809334
:100990003F0490934004A0934104B0934204BF915C
:1009A000AF919F918F913F912F910F900FBE0F901C
:1009B0001F9018958FB7F894209143043091440408
:1009C00040914504509146048FBFB901CA01089572
:1009D0009FB7F89420913F04309140044091410426
:1009E0005091420486B5A89B06C08F3F21F02F5F2F
:1009F0003F4F4F4F5F4F9FBF542F432F322F222720
:100A0000280F311D411D511D82E0220F331F441F4D
:100A1000551F8A95D1F7B901CA0108959B01AC0110
:100A20007FB7F89480913F0490914004A0914104D5
:100A3000B091420466B5A89B05C06F3F19F00196BE
:100A4000A11DB11D7FBFBA2FA92F982F8827860F10
:100A5000911DA11DB11D62E0880F991FAA1FBB1F28
:100A60006A95D1F7BC012DC0FFB7F89480913F047F
:100A700090914004A0914104B0914204E6B5A89B36
:100A800005C0EF3F19F00196A11DB11DFFBFBA2FA0
:100A9000A92F982F88278E0F911DA11DB11DE2E06F
:100AA000880F991FAA1FBB1FEA95D1F7861B970BCA
:100AB000885E9340C8F22150304040405040685119
:100AC0007C4F211531054105510571F608950197B7
:100AD00039F0880F991F880F991F02970197F1F736
:100AE0000895789484B5826084BD84B5816084BDA6
:100AF00085B5826085BD85B5816085BDEEE6F0E097
:100B0000808181608083E1E8F0E0108280818260F2
:100B10008083808181608083E0E8F0E08081816073
:100B20008083E1EBF0E0808184608083E0EBF0E0A3
:100B3000808181608083E1E9F0E080818260808350
:100B4000808181608083E0E9F0E080818160808342
:100B5000E1EAF0E08081826080838081816080832F
:100B6000E0EAF0E0808181608083E1E2F1E0808171
:100B700082608083808181608083E0E2F1E0808117
:100B800081608083EAE7F0E08081846080838081F7
:100B9000826080838081816080838081806880839F
:100BA0001092C1000895482F50E0CA0188589E4F06
:100BB000FC0124914E5C5E4FFA0184918823C1F0C0
:100BC000E82FF0E0EE0FFF1FEC51FF4FA591B4911D
:100BD000662341F49FB7F8948C91209582238C93DF
:100BE0009FBF08959FB7F8948C91822B8C939FBFE1
:100BF0000895893009F448C08A30A0F4843049F15E
:100C0000853040F4823071F18330F8F4813009F09E
:100C100062C025C0873071F1883090F5863009F0C8
:100C20005AC024C08D3009F441C08E3028F48B3076
:100C3000A9F18C30B8F52CC08F3009F441C08F3049
:100C4000D8F1803109F047C041C0809180008F7792
:100C500003C0809180008F7D80938000089584B5CB
:100C60008F7702C084B58F7D84BD08958091B000D8
:100C70008F7703C08091B0008F7D8093B00008957E
:100C8000809190008F7707C0809190008F7D03C086
:100C900080919000877F8093900008958091A000BC
:100CA0008F7707C08091A0008F7D03C08091A00046
:100CB000877F8093A0000895809120018F7703C0E3
:100CC000809120018F7D80932001089580912001E3
:100CD000877F809320010895FF920F931F93F62E34
:100CE000482F50E0CA0182549E4FFC012491CA0152
:100CF00088589E4FFC0114914E5C5E4FFA0104919E
:100D00000023D9F0222319F0822F0E94F905E02F49
:100D1000F0E0EE0FFF1FE250FF4FA591B491FF20CE
:100D200031F49FB7F8948C911095812304C09FB73C
:100D3000F8948C91812B8C939FBF1F910F91FF9002
:100D400008950F931F93482F50E0CA0182549E4F7D
:100D5000FC012491CA0188589E4FFC0104914E5C0D
:100D60005E4FFA011491112319F420E030E015C010
:100D7000222319F0822F0E94F905812F90E0880F1D
:100D8000991F885E9E4FFC01A591B4918C9120E043
:100D900030E0802311F021E030E0C9011F910F9174
:100DA0000895AF92BF92CF92DF92EF92FF920F938E
:100DB0001F937B016A0159018AEA96E00E947B0F2A
:100DC00089E090E0B70146E050E00E94DC0D8FE042
:100DD00090E0B60144E050E00E94DC0D81E090E03C
:100DE000B50144E050E00E94DC0D85E090E0B801E0
:100DF00044E050E00E94DC0D1F910F91FF90EF90B6
:100E0000DF90CF90BF90AF9008951F920F920FB6D2
:100E10000F920BB60F9211242F933F934F938F9302
:100E20009F93EF93FF934091C600E091C904F09126
:100E3000CA0431969F012F77307031978091CB048F
:100E40009091CC042817390739F0E75BFB4F4083BA
:100E50003093CA042093C904FF91EF919F918F9121
:100E60004F913F912F910F900BBE0F900FBE0F909F
:100E70001F9018951F920F920FB60F920BB60F92FC
:100E800011242F933F934F938F939F93EF93FF934F
:100E90004091CE00E0914D05F0914E0531969F01B5
:100EA0002F773070319780914F059091500528171A
:100EB000390739F0E353FB4F408330934E052093BD
:100EC0004D05FF91EF919F918F914F913F912F9100
:100ED0000F900BBE0F900FBE0F901F9018951F9292
:100EE0000F920FB60F920BB60F9211242F933F93D0
:100EF0004F938F939F93EF93FF934091D600E09190
:100F0000D105F091D20531969F012F77307031973E
:100F10008091D3059091D4052817390739F0EF5AFD
:100F2000FA4F40833093D2052093D105FF91EF9182
:100F30009F918F914F913F912F910F900BBE0F90EA
:100F40000FBE0F901F9018951F920F920FB60F9221
:100F50000BB60F9211242F933F934F938F939F9330
:100F6000EF93FF9340913601E0915506F0915606BC
:100F700031969F012F77307031978091570690916D
:100F800058062817390739F0EB52FA4F408330934F
:100F9000560620935506FF91EF919F918F914F91A7
:100FA0003F912F910F900BBE0F900FBE0F901F908F
:100FB0001895CF93DF93EC019A01AB01E885F98591
:100FC000203081EE380780E0480780E0580709F4B8
:100FD00045C081E090E00A8802C0880F991F0A94FA
:100FE000E2F7808360E079E08DE390E00E94DF0F1C
:100FF00021503040404050405695479537952795B1
:10100000EC81FD813083EE81FF812083EA85FB85C1
:10101000208141E050E0CA010E8402C0880F991F70
:101020000A94E2F7282B2083EA85FB852081CA01F8
:101030000F8402C0880F991F0A94E2F7282B20839F
:10104000EA85FB858081088802C0440F551F0A94F9
:10105000E2F7842B8083DF91CF910895108220E105
:1010600030E0CECFDC011296ED91FC911397E05861
:10107000FF4F2191319180819181281B390B2F776E
:101080003070C9010895DC011296ED91FC9113971F
:10109000EE57FF4F2081318192918291E058F040CC
:1010A0008217930719F42FEF3FEF05C0E20FF31FEC
:1010B0008081282F30E0C9010895DC011296ED915E
:1010C000FC911397DF01AE57BF4F2D913C911197C3
:1010D000E058FF4F80819181E058F04082179307DC
:1010E00019F42FEF3FEF0BC0E20FF31F80812F5F4A
:1010F0003F4F2F7730702D933C93282F30E0C9015C
:101100000895DC011296ED91FC911397EE57FF4F75
:1011100080819181929382930895FC01A085B1858D
:1011200021898C9190E0022E02C0959587950A94B2
:10113000E2F780FFF6CF0484F585E02D6083089503
:101140002AED32E030935A062093590689E494E060
:1011500090935C0680935B0685EC90E090935E062E
:1011600080935D0684EC90E09093600680935F0628
:1011700080EC90E0909362068093610681EC90E0B1
:10118000909364068093630686EC90E090936606E5
:1011900080936506E4E0E093670673E07093680669
:1011A00067E06093690655E050936A0641E040931A
:1011B0006B0630936D0620936C068DEC94E0909353
:1011C0006F0680936E068DEC90E09093710680938D
:1011D00070068CEC90E0909373068093720688EC16
:1011E00090E0909375068093740689EC90E090935C
:1011F0007706809376068EEC90E090937906809344
:101200007806E0937A0670937B0660937C06509391
:101210007D0640937E063093800620937F0681E50D
:1012200095E0909382068093810685ED90E09093FF
:1012300084068093830684ED90E0909386068093E5
:10124000850680ED90E0909388068093870681ED77
:1012500090E090938A068093890686ED90E09093C3
:101260008C0680938B06E0938D0670938E066093B8
:101270008F065093900640939106309393062093E7
:10128000920685ED95E0909395068093940685E30C
:1012900091E0909397068093960684E391E0909373
:1012A00099068093980680E391E090939B06809343
:1012B0009A0681E391E090939D0680939C0686E3D5
:1012C00091E090939F0680939E06E093A006709312
:1012D000A1066093A2065093A3064093A406089526
:1012E0000F931F93CF93DF938C01EB0109C02196DD
:1012F000D801ED91FC910190F081E02DC801199584
:1013000068816623A1F7DF91CF911F910F91089516
:10131000EF92FF920F931F93CF93DF938C017B018A
:10132000EA010CC0D7016D917D01D801ED91FC91CE
:101330000190F081E02DC80119952197209791F730
:10134000DF91CF911F910F91FF90EF900895DC01F5
:10135000ED91FC910280F381E02D199508952F9273
:101360003F924F925F926F927F928F929F92AF9235
:10137000BF92CF92DF92EF92FF920F931F93DF9372
:10138000CF93CDB7DEB7A0970FB6F894DEBF0FBEF0
:10139000CDBF1C016A017B01411551056105710535
:1013A00049F440E350E060E070E020E030E00E946B
:1013B000670A54C0882499245401422E5524662477
:1013C000772401E010E00C0F1D1F080D191DC70147
:1013D000B601A30192010E94DF0FF8016083089417
:1013E000811C911CA11CB11CC701B601A301920173
:1013F0000E94DF0FC901DA016C017D01C114D10423
:10140000E104F104F1F681E0E82EF12CEC0EFD1E72
:10141000E80CF91C3E010894611C711CD501C40143
:101420000197A109B1096C01C818D90814C0F601C7
:10143000EE0DFF1D40814A3010F4405D01C0495C53
:1014400050E060E070E0C10120E030E00E94670AF7
:101450000894E108F1086E147F0449F7A0960FB6CE
:10146000F894DEBF0FBECDBFCF91DF911F910F91DA
:10147000FF90EF90DF90CF90BF90AF909F908F90B4
:101480007F906F905F904F903F902F900895DC0178
:101490002115310541F4ED91FC910190F081E02D91
:1014A000642F199508950E94AF090895EF92FF9255
:1014B0000F931F939A017B0100E010E0B801A70190
:1014C0000E94470A1F910F91FF90EF900895EF92AD
:1014D000FF920F931F93CF93DF93EC017A018B015F
:1014E0002115310541F4E881F9810190F081E02D69
:1014F000642F19951BC02A303105B1F477FF10C055
:101500004DE250E060E070E020E030E00E94670AC9
:1015100010950095F094E094E11CF11C011D111D43
:10152000CE01B801A7012AE00E94AF09DF91CF9157
:101530001F910F91FF90EF900895EF92FF920F93FC
:101540001F937B019A010027F7FC0095102FB8012B
:10155000A7010E94670A1F910F91FF90EF900895D5
:101560000F931F938C014DE050E060E070E020E0AD
:1015700030E00E94670AC8014AE050E060E070E095
:1015800020E030E00E94670A1F910F910895CF92EA
:10159000DF92EF92FF920F931F938C019A016B01E0
:1015A000EE24FF24B701A6010E94470AC8010E9449
:1015B000B00A1F910F91FF90EF90DF90CF900895A8
:1015C0000F931F938C010E94A709C8010E94B00AC3
:1015D0001F910F910895CF92DF92EF92FF920F9398
:1015E0001F938C016B019A01EE24D7FCE094FE2C32
:1015F000B701A6010E94670AC8010E94B00A1F91A4
:101600000F91FF90EF90DF90CF900895FC018AEA50
:1016100096E060810E94A10E08952F923F924F9212
:101620005F926F927F928F929F92AF92BF92CF9272
:10163000DF92EF92FF920F931F93DF93CF93CDB77B
:10164000DEB728970FB6F894DEBF0FBECDBF5C01A2
:101650001B01742E652E790128010E94060B28EFCC
:10166000822E2FEF922E880E991E97FE03C020E047
:1016700030E058C0C72CD62CC814D9040CF049C08F
:10168000F50180818E010F5F1F4FB80148E050E0E7
:101690000E94A00D8981F70180838A8181838B81DB
:1016A00082838C8183839D8180E02E81820F911DB6
:1016B000F20191838083EE24FF24702E012F10C04D
:1016C000F5018081672D702F41E050E00E94A00D50
:1016D000F101EE0DFF1D898180830894E11CF11C4E
:1016E000EC14FD046CF308C0F5018081B80141E001
:1016F00050E00E94A00D03C08E010F5F1F4FC50177
:101700000E94060B892B81F72227332728193909D4
:1017100009C0F5018081B101472D562D97010E9426
:10172000710C9C01C90128960FB6F894DEBF0FBE5C
:10173000CDBFCF91DF911F910F91FF90EF90DF9080
:10174000CF90BF90AF909F908F907F906F905F9061
:101750004F903F902F900895EF92FF920F931F9319
:10176000DF93CF930F920F92CDB7DEB778018E0142
:101770000F5F1F4F0E940D0B29813A81F7013183C2
:1017800020830F900F90CF91DF911F910F91FF90C9
:10179000EF9008950F931F93FC0180810E94350DF7
:1017A0001F910F910895FC01AB0172836183108238
:1017B00080E062E020E00E94390C08950F931F93AF
:1017C000182F8AEA96E0612F40E10E94690F00E03D
:1017D000C8018E5F9B4F6FEF0E94C20D1F910F914A
:1017E0000895FF920F931F93F62E672F082F10E096
:1017F0000C5F1F4F102F0027C80188960E94C20D52
:10180000C80189966F2D0E94C20D1F910F91FF9004
:101810000895FF920F931F93F62E672F082F10E065
:101820000C5F1F4F102F0027C80140960E94C20D69
:10183000C80141966F2D0E94C20D1F910F91FF901C
:101840000895FF920F931F93F62E672F082F10E035
:101850000C5F1F4F102F0027C80104960E94C20D75
:10186000C80105966F2D0E94C20D1F910F91FF9028
:101870000895FF920F931F93CF93DF93082FF62EB7
:10188000EA01122F862F8150853010F080E023C0AE
:10189000802F0E94DE0B1F2980E0902F9C5F612F1C
:1018A0000E94C20D209719F0802FBE010BC06091DD
:1018B000A8067091A9066F5F7F4F7093A906609389
:1018C000A806802F0E94210C8AEA96E0602F41E052
:1018D0000E94690F81E0DF91CF911F910F91FF90DE
:1018E00008956F927F928F929F92BF92CF92DF92D4
:1018F000EF92FF920F931F93DF93CF93CDB7DEB795
:1019000028970FB6F894DEBF0FBECDBFB82E4B019F
:1019100069013801452B19F4CC24DD2491C0082F2E
:1019200010E00C5F1F4F102F0027C80188960E94FF
:10193000030EF82EC80189960E94030E3F2D20E069
:101940007901E80EF11CC8010E94030E90E0877037
:1019500090708330910559F18430910509F444C0A9
:10196000029719F0CC24DD2465C08AEA96E06B2D3D
:10197000A7019E012F5F3F4F08E010E00E94E40E98
:10198000E00EF11E8981F60180838A8181838B813B
:1019900082838C8183839D8180E02E81820F911DC3
:1019A000F301918380839F8180E0288519C08AEAB2
:1019B00096E06B2DA7019E012F5F3F4F06E010E0E0
:1019C0000E94E40EE00EF11E8981F60180838A8177
:1019D00081838B8182838C8183839D8180E02E81B2
:1019E0006C01C20ED11C18C08AEA96E06B2DA701CB
:1019F0009E012F5F3F4F02E010E00E94E40EE00ED8
:101A0000F11E998180E02A81C22EDD242EEF3FEF66
:101A1000C20ED31EC80ED91E8AEA96E06B2DA7010E
:101A2000940186010E94E40EEC0CFD1C8B2DB70185
:101A30000E94F10B8AEA96E06B2D40E40E94690F48
:101A4000C60128960FB6F894DEBF0FBECDBFCF916A
:101A5000DF911F910F91FF90EF90DF90CF90BF909B
:101A60009F908F907F906F900895AF92BF92CF928A
:101A7000DF92FF920F931F93CF93DF93F82E5B01BA
:101A8000F90168018081882351F48181882339F428
:101A90008281882321F48381882309F444C0C114FE
:101AA000D10409F440C0EA0188E04130580718F039
:101AB000C0E0D8E003C041155105B9F10F2D10E089
:101AC0000C5F1F4F102F0027C8010C96BF0144E088
:101AD00050E00E94DC0D8F2DB6010E94090C8AEAAD
:101AE00096E06F2DA5019E010E94250E8AEA96E0E0
:101AF0006F2D40E20E94690F0E5F1F4F0AC0C801A0
:101B00000E94030E83FF05C0C80168E10E94C20D58
:101B10000AC0C8010E94030E84FFF1CFC80160E132
:101B20000E94C20D02C0C0E0D0E0CE01DF91CF9193
:101B30001F910F91FF90DF90CF90BF90AF900895CD
:101B40000F931F93CF93DF93182F9B01EA01411549
:101B5000510519F420E030E00FC08AEA96E0612FC9
:101B6000A9019E0100E00E941F0F8AEA96E0612F02
:101B700040E40E94690F9E01C901DF91CF911F913E
:101B80000F910895282F2C9880EF8EBD0DB407FE7D
:101B9000FDCF8EB59EBD0DB407FEFDCF8EB52EBD1B
:101BA0000DB407FEFDCF8EB56EBD0DB407FEFDCFA3
:101BB0008EB52C9A81E00895DC0120E030E090EFB2
:101BC0001DC02C989EBD0DB407FEFDCF8EB5BEBDC9
:101BD0000DB407FEFDCF8EB5AEBD0DB407FEFDCF33
:101BE0008EB5FB01E20FF31F80818EBD0DB407FEA1
:101BF000FDCF11968EB52C9A2F5F3F4F24173507D6
:101C000000F3CA010895282F2C988FE08EBD0DB4E3
:101C100007FEFDCF8EB59EBD0DB407FEFDCF8EB580
:101C20002EBD0DB407FEFDCF8EB51EBC0DB407FE54
:101C3000FDCF8EB52C9A089590E00496982F8827B2
:101C4000860F971F0E94030E08958F929F92BF9256
:101C5000CF92DF92EF92FF920F931F93CF93DF9378
:101C6000EC01B62E6A017901862F64E270E00E94D1
:101C70001C0E182F8B2D65E270E00E941C0E312F78
:101C800020E04901880E911CA40157708B2D90E033
:101C9000880F991FC80FD91F28813981240F351F3C
:101CA000CA018E0D9F1D8150984090F000E018E011
:101CB000041B150BC901B601A8010E94DC0DA70188
:101CC000401B510B888199810C0D1D1DB80103C06B
:101CD000C901B601A7010E94DC0DE80CF91C0B2D0F
:101CE00010E00C5F1F4F102F0027C80184966F2D46
:101CF0000E94C20DC80185966E2D0E94C20DDF9113
:101D0000CF911F910F91FF90EF90DF90CF90BF90F8
:101D10009F908F900895FF920F931F93F82E66E285
:101D200070E00E941C0E182F00E08F2D67E270E01B
:101D30000E941C0E080F111DC8011F910F91FF90EA
:101D40000895FF920F931F93CF93DF93F62EC0E079
:101D5000D0E08F2D0E948B0E8C01009721F08F2DEB
:101D60000E948B0EEC01C017D10799F7CE01DF91CD
:101D7000CF911F910F91FF900895DC0120E030E09A
:101D80009FE01DC02C989EBD0DB407FEFDCF8EB503
:101D9000BEBD0DB407FEFDCF8EB5AEBD0DB407FEC2
:101DA000FDCF8EB51EBC0DB407FEFDCF11968EB5CE
:101DB000FB01E20FF31F80832C9A2F5F3F4F241704
:101DC000350700F3CA010895CF92DF92EF92FF9298
:101DD0000F931F93CF93DF93690178015770C62F3C
:101DE000D0E02496CC0FDD1FC80FD91F2881398180
:101DF000240F351FC801840F951F8150984088F02B
:101E000000E018E0041B150BC901B601A8010E94EF
:101E1000BD0EE01AF10A888199810C0D1D1DB801D3
:101E200002C0C901B601A7010E94BD0EDF91CF918A
:101E30001F910F91FF90EF90DF90CF9008958F92B8
:101E40009F92AF92BF92CF92DF92EF92FF920F9349
:101E50001F93CF93DF937C01A62E6A014901B02E18
:101E6000862F68E270E00E941C0E182F8A2D69E20E
:101E700070E00E941C0E312F20E0E901C80FD11D37
:101E8000C7016A2DAE01960184010E94E40EBB20B9
:101E900099F47E01E80CF91C0A2D10E00C5F1F4F2D
:101EA000102F0027C80188966F2D0E94C20DC8010F
:101EB00089966E2D0E94C20DDF91CF911F910F91D7
:101EC000FF90EF90DF90CF90BF90AF909F908F905A
:101ED00008951F93162F962F80E08F5F9B4F642FDE
:101EE0000E94C20D812F61E070E00E941C0E8823C9
:101EF000C9F71F9108950F931F93182F092F6CE2B4
:101F000071E080E090E00E940E050E94AD0F249ADF
:101F100080E090E060E80E94C20D8BE190E065E512
:101F20000E94C20D8AE190E065E50E94C20D212F5A
:101F3000302FC901FC0180E090E4918380838050C0
:101F4000904E9187808780509841329620E680306D
:101F5000920799F71F910F91089584E361E00E9421
:101F6000D30583E361E00E94D30585E361E00E942D
:101F7000D30584E360E00E946C0683E360E00E9486
:101F80006C0685E361E00E946C068CB580618CBDB7
:101F90008CB580648CBD089597FB092E07260AD066
:101FA00077FD04D02ED006D000201AF470956195EC
:101FB0007F4F0895F6F7909581959F4F0895A1E280
:101FC0001A2EAA1BBB1BFD010DC0AA1FBB1FEE1FB3
:101FD000FF1FA217B307E407F50720F0A21BB30BFE
:101FE000E40BF50B661F771F881F991F1A9469F77A
:101FF00060957095809590959B01AC01BD01CF01D6
:102000000895AA1BBB1B51E107C0AA1FBB1FA6173F
:10201000B70710F0A61BB70B881F991F5A95A9F791
:1020200080959095BC01CD010895EE0FFF1F05909E
:0A203000F491E02D1994F894FFCF0D
:10203A004C6F776572207061636B65742049442028
:10204A00776974686F757420726573796E633A2064
:10205A005061636B657449443A00205265706C792B
:10206A002049643A00452D53544F5020534554009B
:10207A005061636B657453697A653A00436F6E7495
:10208A00726F6C205573657220446174612000621E
:10209A00797465732C2077697468206120746F7471
:1020AA00616C2073697A65206F66200053746174CD
:1020BA007573205573657220446174612000436F03
:1020CA006D6D756E69636174696F6E20696E69748E
:1020DA0020636F6D706C6574652E0052656164795A
:1020EA002E005573657220696E697420636F6D7076
:1020FA006C6574652E0090A2DA003098ACC6FFFFBA
:10210A00FF00AC000001000000008D08700988097A
:08211A0032085D08430881084A
:00000001FF
